{
  "contractName": "Adoption",
  "abi": [
    {
      "inputs": [
        {
          "internalType": "uint256",
          "name": "",
          "type": "uint256"
        }
      ],
      "name": "adopters",
      "outputs": [
        {
          "internalType": "address",
          "name": "",
          "type": "address"
        }
      ],
      "stateMutability": "view",
      "type": "function",
      "constant": true
    },
    {
      "inputs": [
        {
          "internalType": "uint256",
          "name": "_petId",
          "type": "uint256"
        }
      ],
      "name": "adopt",
      "outputs": [],
      "stateMutability": "nonpayable",
      "type": "function"
    },
    {
      "inputs": [],
      "name": "getAdopters",
      "outputs": [
        {
          "internalType": "address[16]",
          "name": "",
          "type": "address[16]"
        }
      ],
      "stateMutability": "view",
      "type": "function",
      "constant": true
    },
    {
      "inputs": [
        {
          "internalType": "uint256",
          "name": "_petId",
          "type": "uint256"
        }
      ],
      "name": "disown",
      "outputs": [],
      "stateMutability": "nonpayable",
      "type": "function"
    }
  ],
  "bytecode": "0x608060405234801561001057600080fd5b50610455806100206000396000f3fe608060405234801561001057600080fd5b506004361061004c5760003560e01c80631e090ca2146100515780633de4eb171461006d57806343ae80d31461008b5780638588b2c5146100bb575b600080fd5b61006b600480360381019061006691906102a0565b6100d7565b005b61007561012e565b60405161008291906103aa565b60405180910390f35b6100a560048036038101906100a091906102a0565b6101af565b6040516100b291906103d5565b60405180910390f35b6100d560048036038101906100d091906102a0565b6101e5565b005b60008082601081106100ec576100eb6103f0565b5b0160006101000a81548173ffffffffffffffffffffffffffffffffffffffff021916908373ffffffffffffffffffffffffffffffffffffffff16021790555050565b610136610242565b60006010806020026040519081016040528092919082601080156101a5576020028201915b8160009054906101000a900473ffffffffffffffffffffffffffffffffffffffff1673ffffffffffffffffffffffffffffffffffffffff168152602001906001019080831161015b575b5050505050905090565b600081601081106101bf57600080fd5b016000915054906101000a900473ffffffffffffffffffffffffffffffffffffffff1681565b600033905080600083601081106101ff576101fe6103f0565b5b0160006101000a81548173ffffffffffffffffffffffffffffffffffffffff021916908373ffffffffffffffffffffffffffffffffffffffff1602179055505050565b604051806102000160405280601090602082028036833780820191505090505090565b600080fd5b6000819050919050565b61027d8161026a565b811461028857600080fd5b50565b60008135905061029a81610274565b92915050565b6000602082840312156102b6576102b5610265565b5b60006102c48482850161028b565b91505092915050565b600060109050919050565b600081905092915050565b6000819050919050565b600073ffffffffffffffffffffffffffffffffffffffff82169050919050565b6000610318826102ed565b9050919050565b6103288161030d565b82525050565b600061033a838361031f565b60208301905092915050565b6000602082019050919050565b61035c816102cd565b61036681846102d8565b9250610371826102e3565b8060005b838110156103a2578151610389878261032e565b965061039483610346565b925050600181019050610375565b505050505050565b6000610200820190506103c06000830184610353565b92915050565b6103cf8161030d565b82525050565b60006020820190506103ea60008301846103c6565b92915050565b7f4e487b7100000000000000000000000000000000000000000000000000000000600052603260045260246000fdfea2646970667358221220c3ef691136ac56c3fc3e854af7494f9f7d3298451caa03fe5a4f2c4d6cedae9d64736f6c63430008130033",
  "immutableReferences": {},
  "source": "// SPDX-License-Identifier: UNLICENSED\npragma solidity ^0.8.19;\n\n\ncontract Adoption {\n    address[16] public adopters;\n\n    function adopt(uint256 _petId) external {\n        // require(petId >= 0 && petId < adopters.length, \"Invalid pet ID\");\n\n        address adopter = msg.sender;\n        adopters[_petId] = adopter;\n    }\n\n    function getAdopters() external view returns (address[16] memory) {\n        return adopters;\n    }\n\n    function disown(uint256 _petId) external {\n        // require(petId >= 0 && petId < adopters.length, \"Invalid pet ID\");\n\n        adopters[_petId] = address(0);\n    }\n}\n",
  "sourcePath": "/Users/vikramnarra/Code/Pets/contracts/Adoption.sol",
  "compiler": {
    "name": "solc",
    "version": "0.8.19+commit.7dd6d404.Emscripten.clang"
  },
  "schemaVersion": "3.4.15",
  "updatedAt": "2023-08-15T06:15:18.472Z",
  "networkType": "ethereum",
  "devdoc": {
    "kind": "dev",
    "methods": {},
    "version": 1
  },
  "userdoc": {
    "kind": "user",
    "methods": {},
    "version": 1
  }
}