{
  "contractName": "Adoption",
  "abi": [
    {
      "inputs": [
        {
          "internalType": "uint256",
          "name": "",
          "type": "uint256"
        }
      ],
      "name": "adopters",
      "outputs": [
        {
          "internalType": "address",
          "name": "",
          "type": "address"
        }
      ],
      "stateMutability": "view",
      "type": "function",
      "constant": true
    },
    {
      "inputs": [
        {
          "internalType": "uint256",
          "name": "_petId",
          "type": "uint256"
        },
        {
          "internalType": "address",
          "name": "sender",
          "type": "address"
        }
      ],
      "name": "adopt",
      "outputs": [],
      "stateMutability": "nonpayable",
      "type": "function"
    },
    {
      "inputs": [],
      "name": "getAdopters",
      "outputs": [
        {
          "internalType": "address[16]",
          "name": "",
          "type": "address[16]"
        }
      ],
      "stateMutability": "view",
      "type": "function",
      "constant": true
    },
    {
      "inputs": [
        {
          "internalType": "uint256",
          "name": "_petId",
          "type": "uint256"
        }
      ],
      "name": "disown",
      "outputs": [],
      "stateMutability": "nonpayable",
      "type": "function"
    },
    {
      "inputs": [
        {
          "internalType": "uint256",
          "name": "_petId",
          "type": "uint256"
        }
      ],
      "name": "getAdopter",
      "outputs": [
        {
          "internalType": "address",
          "name": "",
          "type": "address"
        }
      ],
      "stateMutability": "view",
      "type": "function",
      "constant": true
    }
  ],
  "bytecode": "0x608060405234801561001057600080fd5b50610608806100206000396000f3fe608060405234801561001057600080fd5b50600436106100575760003560e01c80630689093d1461005c5780631e090ca2146100785780633de4eb171461009457806343ae80d3146100b2578063a7338297146100e2575b600080fd5b610076600480360381019061007191906103c8565b610112565b005b610092600480360381019061008d9190610408565b610170565b005b61009c6101c7565b6040516100a991906104e0565b60405180910390f35b6100cc60048036038101906100c79190610408565b610248565b6040516100d9919061050b565b60405180910390f35b6100fc60048036038101906100f79190610408565b61027e565b604051610109919061050b565b60405180910390f35b6000819050806000846010811061012c5761012b610526565b5b0160006101000a81548173ffffffffffffffffffffffffffffffffffffffff021916908373ffffffffffffffffffffffffffffffffffffffff160217905550505050565b600080826010811061018557610184610526565b5b0160006101000a81548173ffffffffffffffffffffffffffffffffffffffff021916908373ffffffffffffffffffffffffffffffffffffffff16021790555050565b6101cf61030c565b600060108060200260405190810160405280929190826010801561023e576020028201915b8160009054906101000a900473ffffffffffffffffffffffffffffffffffffffff1673ffffffffffffffffffffffffffffffffffffffff16815260200190600101908083116101f4575b5050505050905090565b6000816010811061025857600080fd5b016000915054906101000a900473ffffffffffffffffffffffffffffffffffffffff1681565b60008082101580156102905750601082105b6102cf576040517f08c379a00000000000000000000000000000000000000000000000000000000081526004016102c6906105b2565b60405180910390fd5b600082601081106102e3576102e2610526565b5b0160009054906101000a900473ffffffffffffffffffffffffffffffffffffffff169050919050565b604051806102000160405280601090602082028036833780820191505090505090565b600080fd5b6000819050919050565b61034781610334565b811461035257600080fd5b50565b6000813590506103648161033e565b92915050565b600073ffffffffffffffffffffffffffffffffffffffff82169050919050565b60006103958261036a565b9050919050565b6103a58161038a565b81146103b057600080fd5b50565b6000813590506103c28161039c565b92915050565b600080604083850312156103df576103de61032f565b5b60006103ed85828601610355565b92505060206103fe858286016103b3565b9150509250929050565b60006020828403121561041e5761041d61032f565b5b600061042c84828501610355565b91505092915050565b600060109050919050565b600081905092915050565b6000819050919050565b61045e8161038a565b82525050565b60006104708383610455565b60208301905092915050565b6000602082019050919050565b61049281610435565b61049c8184610440565b92506104a78261044b565b8060005b838110156104d85781516104bf8782610464565b96506104ca8361047c565b9250506001810190506104ab565b505050505050565b6000610200820190506104f66000830184610489565b92915050565b6105058161038a565b82525050565b600060208201905061052060008301846104fc565b92915050565b7f4e487b7100000000000000000000000000000000000000000000000000000000600052603260045260246000fd5b600082825260208201905092915050565b7f496e76616c696420706574204944000000000000000000000000000000000000600082015250565b600061059c600e83610555565b91506105a782610566565b602082019050919050565b600060208201905081810360008301526105cb8161058f565b905091905056fea2646970667358221220f66389fca223d60c3d138bc6143dc2fc4cf0f738a50f63d6ebaa1393230c87e364736f6c63430008130033",
  "immutableReferences": {},
  "source": "// SPDX-License-Identifier: UNLICENSED\npragma solidity ^0.8.19;\n\n\ncontract Adoption {\n    address[16] public adopters;\n\n    function adopt(uint256 _petId, address sender) external {\n        // require(petId >= 0 && petId < adopters.length, \"Invalid pet ID\");\n\n        address adopter = sender;\n        adopters[_petId] = adopter;\n    }\n\n    function getAdopters() external view returns (address[16] memory) {\n        return adopters;\n    }\n\n    function disown(uint256 _petId) external {\n        // require(petId >= 0 && petId < adopters.length, \"Invalid pet ID\");\n\n        adopters[_petId] = address(0);\n    }\n\n    function getAdopter(uint256 _petId) external view returns (address) {\n        require(_petId >= 0 && _petId < adopters.length, \"Invalid pet ID\");\n        return adopters[_petId];\n    }\n}\n",
  "sourcePath": "/Users/vikramnarra/Code/Pets/contracts/Adoption.sol",
  "compiler": {
    "name": "solc",
    "version": "0.8.19+commit.7dd6d404.Emscripten.clang"
  },
  "schemaVersion": "3.4.15",
  "updatedAt": "2023-08-20T16:14:24.229Z",
  "networkType": "ethereum",
  "devdoc": {
    "kind": "dev",
    "methods": {},
    "version": 1
  },
  "userdoc": {
    "kind": "user",
    "methods": {},
    "version": 1
  }
}