{
  "contractName": "PetDatabase",
  "abi": [
    {
      "anonymous": false,
      "inputs": [
        {
          "indexed": true,
          "internalType": "uint256",
          "name": "petId",
          "type": "uint256"
        },
        {
          "indexed": false,
          "internalType": "string",
          "name": "name",
          "type": "string"
        },
        {
          "indexed": false,
          "internalType": "uint8",
          "name": "age",
          "type": "uint8"
        },
        {
          "indexed": false,
          "internalType": "string",
          "name": "breed",
          "type": "string"
        },
        {
          "indexed": false,
          "internalType": "bool",
          "name": "isAvailable",
          "type": "bool"
        },
        {
          "indexed": false,
          "internalType": "string",
          "name": "image",
          "type": "string"
        }
      ],
      "name": "PetAdded",
      "type": "event"
    },
    {
      "inputs": [
        {
          "internalType": "uint256",
          "name": "",
          "type": "uint256"
        }
      ],
      "name": "pets",
      "outputs": [
        {
          "internalType": "string",
          "name": "name",
          "type": "string"
        },
        {
          "internalType": "uint8",
          "name": "age",
          "type": "uint8"
        },
        {
          "internalType": "string",
          "name": "breed",
          "type": "string"
        },
        {
          "internalType": "bool",
          "name": "isAvailable",
          "type": "bool"
        },
        {
          "internalType": "string",
          "name": "image",
          "type": "string"
        }
      ],
      "stateMutability": "view",
      "type": "function",
      "constant": true
    },
    {
      "inputs": [
        {
          "internalType": "string",
          "name": "_name",
          "type": "string"
        },
        {
          "internalType": "uint8",
          "name": "_age",
          "type": "uint8"
        },
        {
          "internalType": "string",
          "name": "_breed",
          "type": "string"
        },
        {
          "internalType": "string",
          "name": "_image",
          "type": "string"
        }
      ],
      "name": "addPet",
      "outputs": [],
      "stateMutability": "nonpayable",
      "type": "function"
    },
    {
      "inputs": [
        {
          "internalType": "uint256",
          "name": "_petId",
          "type": "uint256"
        }
      ],
      "name": "getPet",
      "outputs": [
        {
          "internalType": "string",
          "name": "",
          "type": "string"
        },
        {
          "internalType": "uint8",
          "name": "",
          "type": "uint8"
        },
        {
          "internalType": "string",
          "name": "",
          "type": "string"
        },
        {
          "internalType": "bool",
          "name": "",
          "type": "bool"
        },
        {
          "internalType": "string",
          "name": "",
          "type": "string"
        }
      ],
      "stateMutability": "view",
      "type": "function",
      "constant": true
    },
    {
      "inputs": [],
      "name": "getAllPets",
      "outputs": [
        {
          "components": [
            {
              "internalType": "string",
              "name": "name",
              "type": "string"
            },
            {
              "internalType": "uint8",
              "name": "age",
              "type": "uint8"
            },
            {
              "internalType": "string",
              "name": "breed",
              "type": "string"
            },
            {
              "internalType": "bool",
              "name": "isAvailable",
              "type": "bool"
            },
            {
              "internalType": "string",
              "name": "image",
              "type": "string"
            }
          ],
          "internalType": "struct PetDatabase.Pet[]",
          "name": "",
          "type": "tuple[]"
        }
      ],
      "stateMutability": "view",
      "type": "function",
      "constant": true
    },
    {
      "inputs": [
        {
          "internalType": "uint256",
          "name": "_petId",
          "type": "uint256"
        },
        {
          "internalType": "bool",
          "name": "_isAvailable",
          "type": "bool"
        }
      ],
      "name": "updatePetAvailability",
      "outputs": [],
      "stateMutability": "nonpayable",
      "type": "function"
    },
    {
      "inputs": [
        {
          "internalType": "string",
          "name": "_name",
          "type": "string"
        },
        {
          "internalType": "uint8",
          "name": "_age",
          "type": "uint8"
        },
        {
          "internalType": "string",
          "name": "_breed",
          "type": "string"
        },
        {
          "internalType": "bool",
          "name": "_isAvailable",
          "type": "bool"
        }
      ],
      "name": "filterPets",
      "outputs": [
        {
          "internalType": "uint256[]",
          "name": "",
          "type": "uint256[]"
        }
      ],
      "stateMutability": "view",
      "type": "function",
      "constant": true
    }
  ],
  "bytecode": "0x608060405234801561001057600080fd5b50611936806100206000396000f3fe608060405234801561001057600080fd5b50600436106100625760003560e01c80632939b0eb14610067578063416411461461008357806359d551941461009f5780635b236d97146100d357806369b64ac8146100f1578063cfb869bf14610121575b600080fd5b610081600480360381019061007c9190610d27565b610155565b005b61009d60048036038101906100989190610ee6565b6101dd565b005b6100b960048036038101906100b49190610fa1565b610318565b6040516100ca95949392919061106b565b60405180910390f35b6100db6105b4565b6040516100e89190611281565b60405180910390f35b61010b600480360381019061010691906112a3565b610801565b6040516101189190611400565b60405180910390f35b61013b60048036038101906101369190610fa1565b610aad565b60405161014c95949392919061106b565b60405180910390f35b600080549050821061019c576040517f08c379a00000000000000000000000000000000000000000000000000000000081526004016101939061146e565b60405180910390fd5b80600083815481106101b1576101b061148e565b5b906000526020600020906005020160030160006101000a81548160ff0219169083151502179055505050565b60006040518060a001604052808681526020018560ff168152602001848152602001600115158152602001838152509080600181540180825580915050600190039060005260206000209060050201600090919091909150600082015181600001908161024a91906116c9565b5060208201518160010160006101000a81548160ff021916908360ff160217905550604082015181600201908161028191906116c9565b5060608201518160030160006101000a81548160ff02191690831515021790555060808201518160040190816102b791906116c9565b505050600060016000805490506102ce91906117ca565b9050807fa77e1b2b02efcf16d8c87cb02ced764c64d68f4830612ba05b84f2b41438f12e86868660018760405161030995949392919061106b565b60405180910390a25050505050565b606060006060600060606000805490508610610369576040517f08c379a00000000000000000000000000000000000000000000000000000000081526004016103609061146e565b60405180910390fd5b600080878154811061037e5761037d61148e565b5b90600052602060002090600502016040518060a00160405290816000820180546103a7906114ec565b80601f01602080910402602001604051908101604052809291908181526020018280546103d3906114ec565b80156104205780601f106103f557610100808354040283529160200191610420565b820191906000526020600020905b81548152906001019060200180831161040357829003601f168201915b505050505081526020016001820160009054906101000a900460ff1660ff1660ff168152602001600282018054610456906114ec565b80601f0160208091040260200160405190810160405280929190818152602001828054610482906114ec565b80156104cf5780601f106104a4576101008083540402835291602001916104cf565b820191906000526020600020905b8154815290600101906020018083116104b257829003601f168201915b505050505081526020016003820160009054906101000a900460ff16151515158152602001600482018054610503906114ec565b80601f016020809104026020016040519081016040528092919081815260200182805461052f906114ec565b801561057c5780601f106105515761010080835404028352916020019161057c565b820191906000526020600020905b81548152906001019060200180831161055f57829003601f168201915b505050505081525050905080600001518160200151826040015183606001518460800151955095509550955095505091939590929450565b60606000805480602002602001604051908101604052809291908181526020016000905b828210156107f857838290600052602060002090600502016040518060a001604052908160008201805461060b906114ec565b80601f0160208091040260200160405190810160405280929190818152602001828054610637906114ec565b80156106845780601f1061065957610100808354040283529160200191610684565b820191906000526020600020905b81548152906001019060200180831161066757829003601f168201915b505050505081526020016001820160009054906101000a900460ff1660ff1660ff1681526020016002820180546106ba906114ec565b80601f01602080910402602001604051908101604052809291908181526020018280546106e6906114ec565b80156107335780601f1061070857610100808354040283529160200191610733565b820191906000526020600020905b81548152906001019060200180831161071657829003601f168201915b505050505081526020016003820160009054906101000a900460ff16151515158152602001600482018054610767906114ec565b80601f0160208091040260200160405190810160405280929190818152602001828054610793906114ec565b80156107e05780601f106107b5576101008083540402835291602001916107e0565b820191906000526020600020905b8154815290600101906020018083116107c357829003601f168201915b505050505081525050815260200190600101906105d8565b50505050905090565b60606000808054905067ffffffffffffffff81111561082357610822610d82565b5b6040519080825280602002602001820160405280156108515781602001602082028036833780820191505090505b5090506000805b6000805490508110156109f857600080895114806108b5575088805190602001206000838154811061088d5761088c61148e565b5b90600052602060002090600502016000016040516108ab91906118a1565b6040518091039020145b90506000808960ff16148061090157508860ff16600084815481106108dd576108dc61148e565b5b906000526020600020906005020160010160009054906101000a900460ff1660ff16145b905060008089511480610953575088805190602001206000858154811061092b5761092a61148e565b5b906000526020600020906005020160020160405161094991906118a1565b6040518091039020145b9050600080858154811061096a5761096961148e565b5b906000526020600020906005020160030160009054906101000a900460ff16151589151514905083801561099b5750825b80156109a45750815b80156109ad5750805b156109e157848787815181106109c6576109c561148e565b5b60200260200101818152505085806109dd906118b8565b9650505b5050505080806109f0906118b8565b915050610858565b5060008167ffffffffffffffff811115610a1557610a14610d82565b5b604051908082528060200260200182016040528015610a435781602001602082028036833780820191505090505b50905060005b82811015610a9e57838181518110610a6457610a6361148e565b5b6020026020010151828281518110610a7f57610a7e61148e565b5b6020026020010181815250508080610a96906118b8565b915050610a49565b50809350505050949350505050565b60008181548110610abd57600080fd5b9060005260206000209060050201600091509050806000018054610ae0906114ec565b80601f0160208091040260200160405190810160405280929190818152602001828054610b0c906114ec565b8015610b595780601f10610b2e57610100808354040283529160200191610b59565b820191906000526020600020905b815481529060010190602001808311610b3c57829003601f168201915b5050505050908060010160009054906101000a900460ff1690806002018054610b81906114ec565b80601f0160208091040260200160405190810160405280929190818152602001828054610bad906114ec565b8015610bfa5780601f10610bcf57610100808354040283529160200191610bfa565b820191906000526020600020905b815481529060010190602001808311610bdd57829003601f168201915b5050505050908060030160009054906101000a900460ff1690806004018054610c22906114ec565b80601f0160208091040260200160405190810160405280929190818152602001828054610c4e906114ec565b8015610c9b5780601f10610c7057610100808354040283529160200191610c9b565b820191906000526020600020905b815481529060010190602001808311610c7e57829003601f168201915b5050505050905085565b6000604051905090565b600080fd5b600080fd5b6000819050919050565b610ccc81610cb9565b8114610cd757600080fd5b50565b600081359050610ce981610cc3565b92915050565b60008115159050919050565b610d0481610cef565b8114610d0f57600080fd5b50565b600081359050610d2181610cfb565b92915050565b60008060408385031215610d3e57610d3d610caf565b5b6000610d4c85828601610cda565b9250506020610d5d85828601610d12565b9150509250929050565b600080fd5b600080fd5b6000601f19601f8301169050919050565b7f4e487b7100000000000000000000000000000000000000000000000000000000600052604160045260246000fd5b610dba82610d71565b810181811067ffffffffffffffff82111715610dd957610dd8610d82565b5b80604052505050565b6000610dec610ca5565b9050610df88282610db1565b919050565b600067ffffffffffffffff821115610e1857610e17610d82565b5b610e2182610d71565b9050602081019050919050565b82818337600083830152505050565b6000610e50610e4b84610dfd565b610de2565b905082815260208101848484011115610e6c57610e6b610d6c565b5b610e77848285610e2e565b509392505050565b600082601f830112610e9457610e93610d67565b5b8135610ea4848260208601610e3d565b91505092915050565b600060ff82169050919050565b610ec381610ead565b8114610ece57600080fd5b50565b600081359050610ee081610eba565b92915050565b60008060008060808587031215610f0057610eff610caf565b5b600085013567ffffffffffffffff811115610f1e57610f1d610cb4565b5b610f2a87828801610e7f565b9450506020610f3b87828801610ed1565b935050604085013567ffffffffffffffff811115610f5c57610f5b610cb4565b5b610f6887828801610e7f565b925050606085013567ffffffffffffffff811115610f8957610f88610cb4565b5b610f9587828801610e7f565b91505092959194509250565b600060208284031215610fb757610fb6610caf565b5b6000610fc584828501610cda565b91505092915050565b600081519050919050565b600082825260208201905092915050565b60005b83811015611008578082015181840152602081019050610fed565b60008484015250505050565b600061101f82610fce565b6110298185610fd9565b9350611039818560208601610fea565b61104281610d71565b840191505092915050565b61105681610ead565b82525050565b61106581610cef565b82525050565b600060a08201905081810360008301526110858188611014565b9050611094602083018761104d565b81810360408301526110a68186611014565b90506110b5606083018561105c565b81810360808301526110c78184611014565b90509695505050505050565b600081519050919050565b600082825260208201905092915050565b6000819050602082019050919050565b600082825260208201905092915050565b600061111b82610fce565b61112581856110ff565b9350611135818560208601610fea565b61113e81610d71565b840191505092915050565b61115281610ead565b82525050565b61116181610cef565b82525050565b600060a08301600083015184820360008601526111848282611110565b91505060208301516111996020860182611149565b50604083015184820360408601526111b18282611110565b91505060608301516111c66060860182611158565b50608083015184820360808601526111de8282611110565b9150508091505092915050565b60006111f78383611167565b905092915050565b6000602082019050919050565b6000611217826110d3565b61122181856110de565b935083602082028501611233856110ef565b8060005b8581101561126f578484038952815161125085826111eb565b945061125b836111ff565b925060208a01995050600181019050611237565b50829750879550505050505092915050565b6000602082019050818103600083015261129b818461120c565b905092915050565b600080600080608085870312156112bd576112bc610caf565b5b600085013567ffffffffffffffff8111156112db576112da610cb4565b5b6112e787828801610e7f565b94505060206112f887828801610ed1565b935050604085013567ffffffffffffffff81111561131957611318610cb4565b5b61132587828801610e7f565b925050606061133687828801610d12565b91505092959194509250565b600081519050919050565b600082825260208201905092915050565b6000819050602082019050919050565b61137781610cb9565b82525050565b6000611389838361136e565b60208301905092915050565b6000602082019050919050565b60006113ad82611342565b6113b7818561134d565b93506113c28361135e565b8060005b838110156113f35781516113da888261137d565b97506113e583611395565b9250506001810190506113c6565b5085935050505092915050565b6000602082019050818103600083015261141a81846113a2565b905092915050565b7f496e76616c696420706574204944000000000000000000000000000000000000600082015250565b6000611458600e83610fd9565b915061146382611422565b602082019050919050565b600060208201905081810360008301526114878161144b565b9050919050565b7f4e487b7100000000000000000000000000000000000000000000000000000000600052603260045260246000fd5b7f4e487b7100000000000000000000000000000000000000000000000000000000600052602260045260246000fd5b6000600282049050600182168061150457607f821691505b602082108103611517576115166114bd565b5b50919050565b60008190508160005260206000209050919050565b60006020601f8301049050919050565b600082821b905092915050565b60006008830261157f7fffffffffffffffffffffffffffffffffffffffffffffffffffffffffffffffff82611542565b6115898683611542565b95508019841693508086168417925050509392505050565b6000819050919050565b60006115c66115c16115bc84610cb9565b6115a1565b610cb9565b9050919050565b6000819050919050565b6115e0836115ab565b6115f46115ec826115cd565b84845461154f565b825550505050565b600090565b6116096115fc565b6116148184846115d7565b505050565b5b818110156116385761162d600082611601565b60018101905061161a565b5050565b601f82111561167d5761164e8161151d565b61165784611532565b81016020851015611666578190505b61167a61167285611532565b830182611619565b50505b505050565b600082821c905092915050565b60006116a060001984600802611682565b1980831691505092915050565b60006116b9838361168f565b9150826002028217905092915050565b6116d282610fce565b67ffffffffffffffff8111156116eb576116ea610d82565b5b6116f582546114ec565b61170082828561163c565b600060209050601f8311600181146117335760008415611721578287015190505b61172b85826116ad565b865550611793565b601f1984166117418661151d565b60005b8281101561176957848901518255600182019150602085019450602081019050611744565b868310156117865784890151611782601f89168261168f565b8355505b6001600288020188555050505b505050505050565b7f4e487b7100000000000000000000000000000000000000000000000000000000600052601160045260246000fd5b60006117d582610cb9565b91506117e083610cb9565b92508282039050818111156117f8576117f761179b565b5b92915050565b600081905092915050565b60008190508160005260206000209050919050565b6000815461182b816114ec565b61183581866117fe565b94506001821660008114611850576001811461186557611898565b60ff1983168652811515820286019350611898565b61186e85611809565b60005b8381101561189057815481890152600182019150602081019050611871565b838801955050505b50505092915050565b60006118ad828461181e565b915081905092915050565b60006118c382610cb9565b91507fffffffffffffffffffffffffffffffffffffffffffffffffffffffffffffffff82036118f5576118f461179b565b5b60018201905091905056fea26469706673582212200e5ee6b4c6adffe37d45a9e36a348087ebc06506b3341b4af98038f0c272ce9164736f6c63430008130033",
  "immutableReferences": {},
  "source": "//SPDX-License-Identifier: UNLICENSED\npragma solidity ^0.8.19;\n\ncontract PetDatabase {\n    struct Pet {\n        string name;\n        uint8 age;\n        string breed;\n        bool isAvailable;\n        string image; // New field for the image of the pet\n    }\n\n    Pet[] public pets; // Array to store pets\n\n    event PetAdded(\n        uint256 indexed petId,\n        string name,\n        uint8 age,\n        string breed,\n        bool isAvailable,\n        string image // Updated event to include image\n    );\n\n    // The following function adds a pet to the blockchain of pets [REQUIRES GAS]\n    function addPet(\n        string memory _name,\n        uint8 _age,\n        string memory _breed,\n        string memory _image // New parameter for the image\n    ) external {\n        pets.push(Pet(_name, _age, _breed, true, _image)); // Push new pet to the array\n        uint256 petId = pets.length - 1; // Calculate the pet ID\n\n        emit PetAdded(petId, _name, _age, _breed, true, _image); // Emit the event\n    }\n\n    // The following function returns a single pet given a specific petId [DOES NOT REQUIRE GAS]\n    function getPet(\n        uint256 _petId\n    )\n        external\n        view\n        returns (string memory, uint8, string memory, bool, string memory)\n    {\n        require(_petId < pets.length, \"Invalid pet ID\"); // Validate pet ID\n\n        Pet memory pet = pets[_petId];\n        return (pet.name, pet.age, pet.breed, pet.isAvailable, pet.image);\n    }\n\n    // The following function returns all pets stored in the blockchain [DOES NOT REQUIRE GAS]\n    function getAllPets() external view returns (Pet[] memory) {\n        return pets;\n    }\n\n    // The following function returns an array of pet IDs that match the filtering criteria [DOES NOT REQUIRE GAS]\n    function updatePetAvailability(uint256 _petId, bool _isAvailable) external {\n        require(_petId < pets.length, \"Invalid pet ID\"); // Validate pet ID\n\n        pets[_petId].isAvailable = _isAvailable;\n    }\n\n    function filterPets(\n        string memory _name,\n        uint8 _age,\n        string memory _breed,\n        bool _isAvailable\n    ) external view returns (uint256[] memory) {\n        uint256[] memory matchingPetIds = new uint256[](pets.length);\n        uint256 matchingCount = 0;\n\n        for (uint256 i = 0; i < pets.length; i++) {\n            bool nameMatches = bytes(_name).length == 0 ||\n                keccak256(bytes(pets[i].name)) == keccak256(bytes(_name));\n            bool ageMatches = _age == 0 || pets[i].age == _age;\n            bool breedMatches = bytes(_breed).length == 0 ||\n                keccak256(bytes(pets[i].breed)) == keccak256(bytes(_breed));\n            bool availabilityMatches = _isAvailable == pets[i].isAvailable;\n\n            if (\n                nameMatches && ageMatches && breedMatches && availabilityMatches\n            ) {\n                matchingPetIds[matchingCount] = i;\n                matchingCount++;\n            }\n        }\n\n        uint256[] memory result = new uint256[](matchingCount);\n        for (uint256 j = 0; j < matchingCount; j++) {\n            result[j] = matchingPetIds[j];\n        }\n\n        return result;\n    }\n}\n",
  "sourcePath": "/Users/vikramnarra/Code/Pets/contracts/PetDatabase.sol",
  "compiler": {
    "name": "solc",
    "version": "0.8.19+commit.7dd6d404.Emscripten.clang"
  },
  "schemaVersion": "3.4.15",
  "updatedAt": "2023-08-12T21:40:08.128Z",
  "networkType": "ethereum",
  "devdoc": {
    "kind": "dev",
    "methods": {},
    "version": 1
  },
  "userdoc": {
    "kind": "user",
    "methods": {},
    "version": 1
  }
}