{
  "contractName": "PetDatabase",
  "abi": [
    {
      "anonymous": false,
      "inputs": [
        {
          "indexed": true,
          "internalType": "uint256",
          "name": "petId",
          "type": "uint256"
        },
        {
          "indexed": false,
          "internalType": "string",
          "name": "name",
          "type": "string"
        },
        {
          "indexed": false,
          "internalType": "uint8",
          "name": "age",
          "type": "uint8"
        },
        {
          "indexed": false,
          "internalType": "string",
          "name": "breed",
          "type": "string"
        },
        {
          "indexed": false,
          "internalType": "bool",
          "name": "isAvailable",
          "type": "bool"
        },
        {
          "indexed": false,
          "internalType": "string",
          "name": "image",
          "type": "string"
        }
      ],
      "name": "PetAdded",
      "type": "event"
    },
    {
      "inputs": [
        {
          "internalType": "uint256",
          "name": "",
          "type": "uint256"
        }
      ],
      "name": "adopters",
      "outputs": [
        {
          "internalType": "address",
          "name": "",
          "type": "address"
        }
      ],
      "stateMutability": "view",
      "type": "function",
      "constant": true
    },
    {
      "inputs": [
        {
          "internalType": "uint256",
          "name": "",
          "type": "uint256"
        }
      ],
      "name": "pets",
      "outputs": [
        {
          "internalType": "string",
          "name": "name",
          "type": "string"
        },
        {
          "internalType": "uint8",
          "name": "age",
          "type": "uint8"
        },
        {
          "internalType": "string",
          "name": "breed",
          "type": "string"
        },
        {
          "internalType": "bool",
          "name": "isAvailable",
          "type": "bool"
        },
        {
          "internalType": "string",
          "name": "image",
          "type": "string"
        }
      ],
      "stateMutability": "view",
      "type": "function",
      "constant": true
    },
    {
      "inputs": [],
      "name": "getAdopters",
      "outputs": [
        {
          "internalType": "address[16]",
          "name": "",
          "type": "address[16]"
        }
      ],
      "stateMutability": "view",
      "type": "function",
      "constant": true
    },
    {
      "inputs": [
        {
          "internalType": "string",
          "name": "_name",
          "type": "string"
        },
        {
          "internalType": "uint8",
          "name": "_age",
          "type": "uint8"
        },
        {
          "internalType": "string",
          "name": "_breed",
          "type": "string"
        },
        {
          "internalType": "string",
          "name": "_image",
          "type": "string"
        }
      ],
      "name": "addPet",
      "outputs": [],
      "stateMutability": "nonpayable",
      "type": "function"
    },
    {
      "inputs": [
        {
          "internalType": "uint256",
          "name": "_petId",
          "type": "uint256"
        }
      ],
      "name": "getPet",
      "outputs": [
        {
          "internalType": "string",
          "name": "",
          "type": "string"
        },
        {
          "internalType": "uint8",
          "name": "",
          "type": "uint8"
        },
        {
          "internalType": "string",
          "name": "",
          "type": "string"
        },
        {
          "internalType": "bool",
          "name": "",
          "type": "bool"
        },
        {
          "internalType": "string",
          "name": "",
          "type": "string"
        }
      ],
      "stateMutability": "view",
      "type": "function",
      "constant": true
    },
    {
      "inputs": [],
      "name": "getAllPets",
      "outputs": [
        {
          "components": [
            {
              "internalType": "string",
              "name": "name",
              "type": "string"
            },
            {
              "internalType": "uint8",
              "name": "age",
              "type": "uint8"
            },
            {
              "internalType": "string",
              "name": "breed",
              "type": "string"
            },
            {
              "internalType": "bool",
              "name": "isAvailable",
              "type": "bool"
            },
            {
              "internalType": "string",
              "name": "image",
              "type": "string"
            }
          ],
          "internalType": "struct PetDatabase.Pet[]",
          "name": "",
          "type": "tuple[]"
        }
      ],
      "stateMutability": "view",
      "type": "function",
      "constant": true
    },
    {
      "inputs": [
        {
          "internalType": "uint256",
          "name": "_petId",
          "type": "uint256"
        },
        {
          "internalType": "bool",
          "name": "_isAvailable",
          "type": "bool"
        }
      ],
      "name": "updatePetAvailability",
      "outputs": [],
      "stateMutability": "nonpayable",
      "type": "function"
    },
    {
      "inputs": [
        {
          "internalType": "string",
          "name": "_name",
          "type": "string"
        },
        {
          "internalType": "uint8",
          "name": "_age",
          "type": "uint8"
        },
        {
          "internalType": "string",
          "name": "_breed",
          "type": "string"
        },
        {
          "internalType": "bool",
          "name": "_isAvailable",
          "type": "bool"
        }
      ],
      "name": "filterPets",
      "outputs": [
        {
          "internalType": "uint256[]",
          "name": "",
          "type": "uint256[]"
        }
      ],
      "stateMutability": "view",
      "type": "function",
      "constant": true
    }
  ],
  "bytecode": "0x6080604052600060015534801561001557600080fd5b50611c61806100256000396000f3fe608060405234801561001057600080fd5b50600436106100885760003560e01c806359d551941161005b57806359d55194146101135780635b236d971461014757806369b64ac814610165578063cfb869bf1461019557610088565b80632939b0eb1461008d5780633de4eb17146100a957806341641146146100c757806343ae80d3146100e3575b600080fd5b6100a760048036038101906100a29190610f2f565b6101c9565b005b6100b161030c565b6040516100be919061104c565b60405180910390f35b6100e160048036038101906100dc91906111e7565b61038d565b005b6100fd60048036038101906100f891906112a2565b6104c7565b60405161010a91906112de565b60405180910390f35b61012d600480360381019061012891906112a2565b6104fd565b60405161013e959493929190611396565b60405180910390f35b61014f610799565b60405161015c91906115ac565b60405180910390f35b61017f600480360381019061017a91906115ce565b6109e6565b60405161018c919061172b565b60405180910390f35b6101af60048036038101906101aa91906112a2565b610c92565b6040516101c0959493929190611396565b60405180910390f35b6000805490508210610210576040517f08c379a000000000000000000000000000000000000000000000000000000000815260040161020790611799565b60405180910390fd5b80156102705760006002836010811061022c5761022b6117b9565b5b0160006101000a81548173ffffffffffffffffffffffffffffffffffffffff021916908373ffffffffffffffffffffffffffffffffffffffff1602179055506102cb565b6000339050806002846010811061028a576102896117b9565b5b0160006101000a81548173ffffffffffffffffffffffffffffffffffffffff021916908373ffffffffffffffffffffffffffffffffffffffff160217905550505b80600083815481106102e0576102df6117b9565b5b906000526020600020906005020160030160006101000a81548160ff0219169083151502179055505050565b610314610e8a565b6002601080602002604051908101604052809291908260108015610383576020028201915b8160009054906101000a900473ffffffffffffffffffffffffffffffffffffffff1673ffffffffffffffffffffffffffffffffffffffff1681526020019060010190808311610339575b5050505050905090565b60006040518060a001604052808681526020018560ff16815260200184815260200160011515815260200183815250908060018154018082558091505060019003906000526020600020906005020160009091909190915060008201518160000190816103fa91906119f4565b5060208201518160010160006101000a81548160ff021916908360ff160217905550604082015181600201908161043191906119f4565b5060608201518160030160006101000a81548160ff021916908315150217905550608082015181600401908161046791906119f4565b505050600180546104789190611af5565b6001819055506001547fa77e1b2b02efcf16d8c87cb02ced764c64d68f4830612ba05b84f2b41438f12e8585856001866040516104b9959493929190611396565b60405180910390a250505050565b600281601081106104d757600080fd5b016000915054906101000a900473ffffffffffffffffffffffffffffffffffffffff1681565b60606000606060006060600080549050861061054e576040517f08c379a000000000000000000000000000000000000000000000000000000000815260040161054590611799565b60405180910390fd5b6000808781548110610563576105626117b9565b5b90600052602060002090600502016040518060a001604052908160008201805461058c90611817565b80601f01602080910402602001604051908101604052809291908181526020018280546105b890611817565b80156106055780601f106105da57610100808354040283529160200191610605565b820191906000526020600020905b8154815290600101906020018083116105e857829003601f168201915b505050505081526020016001820160009054906101000a900460ff1660ff1660ff16815260200160028201805461063b90611817565b80601f016020809104026020016040519081016040528092919081815260200182805461066790611817565b80156106b45780601f10610689576101008083540402835291602001916106b4565b820191906000526020600020905b81548152906001019060200180831161069757829003601f168201915b505050505081526020016003820160009054906101000a900460ff161515151581526020016004820180546106e890611817565b80601f016020809104026020016040519081016040528092919081815260200182805461071490611817565b80156107615780601f1061073657610100808354040283529160200191610761565b820191906000526020600020905b81548152906001019060200180831161074457829003601f168201915b505050505081525050905080600001518160200151826040015183606001518460800151955095509550955095505091939590929450565b60606000805480602002602001604051908101604052809291908181526020016000905b828210156109dd57838290600052602060002090600502016040518060a00160405290816000820180546107f090611817565b80601f016020809104026020016040519081016040528092919081815260200182805461081c90611817565b80156108695780601f1061083e57610100808354040283529160200191610869565b820191906000526020600020905b81548152906001019060200180831161084c57829003601f168201915b505050505081526020016001820160009054906101000a900460ff1660ff1660ff16815260200160028201805461089f90611817565b80601f01602080910402602001604051908101604052809291908181526020018280546108cb90611817565b80156109185780601f106108ed57610100808354040283529160200191610918565b820191906000526020600020905b8154815290600101906020018083116108fb57829003601f168201915b505050505081526020016003820160009054906101000a900460ff1615151515815260200160048201805461094c90611817565b80601f016020809104026020016040519081016040528092919081815260200182805461097890611817565b80156109c55780601f1061099a576101008083540402835291602001916109c5565b820191906000526020600020905b8154815290600101906020018083116109a857829003601f168201915b505050505081525050815260200190600101906107bd565b50505050905090565b60606000808054905067ffffffffffffffff811115610a0857610a07611083565b5b604051908082528060200260200182016040528015610a365781602001602082028036833780820191505090505b5090506000805b600080549050811015610bdd5760008089511480610a9a5750888051906020012060008381548110610a7257610a716117b9565b5b9060005260206000209060050201600001604051610a909190611bcc565b6040518091039020145b90506000808960ff161480610ae657508860ff1660008481548110610ac257610ac16117b9565b5b906000526020600020906005020160010160009054906101000a900460ff1660ff16145b905060008089511480610b385750888051906020012060008581548110610b1057610b0f6117b9565b5b9060005260206000209060050201600201604051610b2e9190611bcc565b6040518091039020145b90506000808581548110610b4f57610b4e6117b9565b5b906000526020600020906005020160030160009054906101000a900460ff161515891515149050838015610b805750825b8015610b895750815b8015610b925750805b15610bc65784878781518110610bab57610baa6117b9565b5b6020026020010181815250508580610bc290611be3565b9650505b505050508080610bd590611be3565b915050610a3d565b5060008167ffffffffffffffff811115610bfa57610bf9611083565b5b604051908082528060200260200182016040528015610c285781602001602082028036833780820191505090505b50905060005b82811015610c8357838181518110610c4957610c486117b9565b5b6020026020010151828281518110610c6457610c636117b9565b5b6020026020010181815250508080610c7b90611be3565b915050610c2e565b50809350505050949350505050565b60008181548110610ca257600080fd5b9060005260206000209060050201600091509050806000018054610cc590611817565b80601f0160208091040260200160405190810160405280929190818152602001828054610cf190611817565b8015610d3e5780601f10610d1357610100808354040283529160200191610d3e565b820191906000526020600020905b815481529060010190602001808311610d2157829003601f168201915b5050505050908060010160009054906101000a900460ff1690806002018054610d6690611817565b80601f0160208091040260200160405190810160405280929190818152602001828054610d9290611817565b8015610ddf5780601f10610db457610100808354040283529160200191610ddf565b820191906000526020600020905b815481529060010190602001808311610dc257829003601f168201915b5050505050908060030160009054906101000a900460ff1690806004018054610e0790611817565b80601f0160208091040260200160405190810160405280929190818152602001828054610e3390611817565b8015610e805780601f10610e5557610100808354040283529160200191610e80565b820191906000526020600020905b815481529060010190602001808311610e6357829003601f168201915b5050505050905085565b604051806102000160405280601090602082028036833780820191505090505090565b6000604051905090565b600080fd5b600080fd5b6000819050919050565b610ed481610ec1565b8114610edf57600080fd5b50565b600081359050610ef181610ecb565b92915050565b60008115159050919050565b610f0c81610ef7565b8114610f1757600080fd5b50565b600081359050610f2981610f03565b92915050565b60008060408385031215610f4657610f45610eb7565b5b6000610f5485828601610ee2565b9250506020610f6585828601610f1a565b9150509250929050565b600060109050919050565b600081905092915050565b6000819050919050565b600073ffffffffffffffffffffffffffffffffffffffff82169050919050565b6000610fba82610f8f565b9050919050565b610fca81610faf565b82525050565b6000610fdc8383610fc1565b60208301905092915050565b6000602082019050919050565b610ffe81610f6f565b6110088184610f7a565b925061101382610f85565b8060005b8381101561104457815161102b8782610fd0565b965061103683610fe8565b925050600181019050611017565b505050505050565b6000610200820190506110626000830184610ff5565b92915050565b600080fd5b600080fd5b6000601f19601f8301169050919050565b7f4e487b7100000000000000000000000000000000000000000000000000000000600052604160045260246000fd5b6110bb82611072565b810181811067ffffffffffffffff821117156110da576110d9611083565b5b80604052505050565b60006110ed610ead565b90506110f982826110b2565b919050565b600067ffffffffffffffff82111561111957611118611083565b5b61112282611072565b9050602081019050919050565b82818337600083830152505050565b600061115161114c846110fe565b6110e3565b90508281526020810184848401111561116d5761116c61106d565b5b61117884828561112f565b509392505050565b600082601f83011261119557611194611068565b5b81356111a584826020860161113e565b91505092915050565b600060ff82169050919050565b6111c4816111ae565b81146111cf57600080fd5b50565b6000813590506111e1816111bb565b92915050565b6000806000806080858703121561120157611200610eb7565b5b600085013567ffffffffffffffff81111561121f5761121e610ebc565b5b61122b87828801611180565b945050602061123c878288016111d2565b935050604085013567ffffffffffffffff81111561125d5761125c610ebc565b5b61126987828801611180565b925050606085013567ffffffffffffffff81111561128a57611289610ebc565b5b61129687828801611180565b91505092959194509250565b6000602082840312156112b8576112b7610eb7565b5b60006112c684828501610ee2565b91505092915050565b6112d881610faf565b82525050565b60006020820190506112f360008301846112cf565b92915050565b600081519050919050565b600082825260208201905092915050565b60005b83811015611333578082015181840152602081019050611318565b60008484015250505050565b600061134a826112f9565b6113548185611304565b9350611364818560208601611315565b61136d81611072565b840191505092915050565b611381816111ae565b82525050565b61139081610ef7565b82525050565b600060a08201905081810360008301526113b0818861133f565b90506113bf6020830187611378565b81810360408301526113d1818661133f565b90506113e06060830185611387565b81810360808301526113f2818461133f565b90509695505050505050565b600081519050919050565b600082825260208201905092915050565b6000819050602082019050919050565b600082825260208201905092915050565b6000611446826112f9565b611450818561142a565b9350611460818560208601611315565b61146981611072565b840191505092915050565b61147d816111ae565b82525050565b61148c81610ef7565b82525050565b600060a08301600083015184820360008601526114af828261143b565b91505060208301516114c46020860182611474565b50604083015184820360408601526114dc828261143b565b91505060608301516114f16060860182611483565b5060808301518482036080860152611509828261143b565b9150508091505092915050565b60006115228383611492565b905092915050565b6000602082019050919050565b6000611542826113fe565b61154c8185611409565b93508360208202850161155e8561141a565b8060005b8581101561159a578484038952815161157b8582611516565b94506115868361152a565b925060208a01995050600181019050611562565b50829750879550505050505092915050565b600060208201905081810360008301526115c68184611537565b905092915050565b600080600080608085870312156115e8576115e7610eb7565b5b600085013567ffffffffffffffff81111561160657611605610ebc565b5b61161287828801611180565b9450506020611623878288016111d2565b935050604085013567ffffffffffffffff81111561164457611643610ebc565b5b61165087828801611180565b925050606061166187828801610f1a565b91505092959194509250565b600081519050919050565b600082825260208201905092915050565b6000819050602082019050919050565b6116a281610ec1565b82525050565b60006116b48383611699565b60208301905092915050565b6000602082019050919050565b60006116d88261166d565b6116e28185611678565b93506116ed83611689565b8060005b8381101561171e57815161170588826116a8565b9750611710836116c0565b9250506001810190506116f1565b5085935050505092915050565b6000602082019050818103600083015261174581846116cd565b905092915050565b7f496e76616c696420706574204944000000000000000000000000000000000000600082015250565b6000611783600e83611304565b915061178e8261174d565b602082019050919050565b600060208201905081810360008301526117b281611776565b9050919050565b7f4e487b7100000000000000000000000000000000000000000000000000000000600052603260045260246000fd5b7f4e487b7100000000000000000000000000000000000000000000000000000000600052602260045260246000fd5b6000600282049050600182168061182f57607f821691505b602082108103611842576118416117e8565b5b50919050565b60008190508160005260206000209050919050565b60006020601f8301049050919050565b600082821b905092915050565b6000600883026118aa7fffffffffffffffffffffffffffffffffffffffffffffffffffffffffffffffff8261186d565b6118b4868361186d565b95508019841693508086168417925050509392505050565b6000819050919050565b60006118f16118ec6118e784610ec1565b6118cc565b610ec1565b9050919050565b6000819050919050565b61190b836118d6565b61191f611917826118f8565b84845461187a565b825550505050565b600090565b611934611927565b61193f818484611902565b505050565b5b818110156119635761195860008261192c565b600181019050611945565b5050565b601f8211156119a85761197981611848565b6119828461185d565b81016020851015611991578190505b6119a561199d8561185d565b830182611944565b50505b505050565b600082821c905092915050565b60006119cb600019846008026119ad565b1980831691505092915050565b60006119e483836119ba565b9150826002028217905092915050565b6119fd826112f9565b67ffffffffffffffff811115611a1657611a15611083565b5b611a208254611817565b611a2b828285611967565b600060209050601f831160018114611a5e5760008415611a4c578287015190505b611a5685826119d8565b865550611abe565b601f198416611a6c86611848565b60005b82811015611a9457848901518255600182019150602085019450602081019050611a6f565b86831015611ab15784890151611aad601f8916826119ba565b8355505b6001600288020188555050505b505050505050565b7f4e487b7100000000000000000000000000000000000000000000000000000000600052601160045260246000fd5b6000611b0082610ec1565b9150611b0b83610ec1565b9250828201905080821115611b2357611b22611ac6565b5b92915050565b600081905092915050565b60008190508160005260206000209050919050565b60008154611b5681611817565b611b608186611b29565b94506001821660008114611b7b5760018114611b9057611bc3565b60ff1983168652811515820286019350611bc3565b611b9985611b34565b60005b83811015611bbb57815481890152600182019150602081019050611b9c565b838801955050505b50505092915050565b6000611bd88284611b49565b915081905092915050565b6000611bee82610ec1565b91507fffffffffffffffffffffffffffffffffffffffffffffffffffffffffffffffff8203611c2057611c1f611ac6565b5b60018201905091905056fea2646970667358221220cc5a7fce8a423a89a82ed7e1cff14bfef968aa0d3db3e8ac457536ebf2a3948c64736f6c63430008130033",
  "immutableReferences": {},
  "source": "//SPDX-License-Identifier: UNLICENSED\npragma solidity ^0.8.19;\n\n\n// import \"./Adoption.sol\";\n\ncontract PetDatabase {\n    struct Pet {\n        string name;\n        uint8 age;\n        string breed;\n        bool isAvailable;\n        string image; // New field for the image of the pet\n    }\n\n    Pet[] public pets; // Array to store pets\n    uint petCount = 0;\n\n    // Adoption public adoptionContract; // Instance of the Adoption contract\n\n\n    event PetAdded(\n        uint256 indexed petId,\n        string name,\n        uint8 age,\n        string breed,\n        bool isAvailable,\n        string image // Updated event to include image\n    );\n\n    address[16] public adopters;\n\n\n\n    function getAdopters() external view returns (address[16] memory) {\n        return adopters;\n    }\n\n\n\n    // The following function adds a pet to the blockchain of pets [REQUIRES GAS]\n    function addPet(\n        string memory _name,\n        uint8 _age,\n        string memory _breed,\n        string memory _image // New parameter for the image\n    ) external {\n        pets.push(Pet(_name, _age, _breed, true, _image)); // Push new pet to the array\n        petCount = petCount + 1;// Calculate the pet ID\n\n        emit PetAdded(petCount, _name, _age, _breed, true, _image); // Emit the event\n    }\n\n    // The following function returns a single pet given a specific petId [DOES NOT REQUIRE GAS]\n    function getPet(\n        uint256 _petId\n    )\n        external\n        view\n        returns (string memory, uint8, string memory, bool, string memory)\n    {\n        require(_petId < pets.length, \"Invalid pet ID\"); // Validate pet ID\n\n        Pet memory pet = pets[_petId];\n        return (pet.name, pet.age, pet.breed, pet.isAvailable, pet.image);\n    }\n\n    // The following function returns all pets stored in the blockchain [DOES NOT REQUIRE GAS]\n    function getAllPets() external view returns (Pet[] memory) {\n        return pets;\n    }\n\n    // The following function returns an array of pet IDs that match the filtering criteria [DOES NOT REQUIRE GAS]\n    function updatePetAvailability(uint256 _petId, bool _isAvailable) external {\n        require(_petId < pets.length, \"Invalid pet ID\"); // Validate pet ID\n        if (_isAvailable) {\n            adopters[_petId] = address(0);\n\n        } else {\n            address adopter = msg.sender;\n            adopters[_petId] = adopter;\n        }\n        pets[_petId].isAvailable = _isAvailable;\n    }\n\n    function filterPets(\n        string memory _name,\n        uint8 _age,\n        string memory _breed,\n        bool _isAvailable\n    ) external view returns (uint256[] memory) {\n        uint256[] memory matchingPetIds = new uint256[](pets.length);\n        uint256 matchingCount = 0;\n\n        for (uint256 i = 0; i < pets.length; i++) {\n            bool nameMatches = bytes(_name).length == 0 ||\n                keccak256(bytes(pets[i].name)) == keccak256(bytes(_name));\n            bool ageMatches = _age == 0 || pets[i].age == _age;\n            bool breedMatches = bytes(_breed).length == 0 ||\n                keccak256(bytes(pets[i].breed)) == keccak256(bytes(_breed));\n            bool availabilityMatches = _isAvailable == pets[i].isAvailable;\n\n            if (\n                nameMatches && ageMatches && breedMatches && availabilityMatches\n            ) {\n                matchingPetIds[matchingCount] = i;\n                matchingCount++;\n            }\n        }\n\n        uint256[] memory result = new uint256[](matchingCount);\n        for (uint256 j = 0; j < matchingCount; j++) {\n            result[j] = matchingPetIds[j];\n        }\n\n        return result;\n    }\n}\n",
  "sourcePath": "/Users/vikramnarra/Code/Pets/contracts/PetDatabase.sol",
  "compiler": {
    "name": "solc",
    "version": "0.8.19+commit.7dd6d404.Emscripten.clang"
  },
  "schemaVersion": "3.4.15",
  "updatedAt": "2023-08-15T14:34:35.602Z",
  "networkType": "ethereum",
  "devdoc": {
    "kind": "dev",
    "methods": {},
    "version": 1
  },
  "userdoc": {
    "kind": "user",
    "methods": {},
    "version": 1
  }
}