{
  "contractName": "PetDatabase",
  "abi": [
    {
      "inputs": [
        {
          "internalType": "address",
          "name": "_adoptionInstance",
          "type": "address"
        }
      ],
      "stateMutability": "nonpayable",
      "type": "constructor"
    },
    {
      "anonymous": false,
      "inputs": [
        {
          "indexed": true,
          "internalType": "uint256",
          "name": "petId",
          "type": "uint256"
        },
        {
          "indexed": false,
          "internalType": "string",
          "name": "name",
          "type": "string"
        },
        {
          "indexed": false,
          "internalType": "uint8",
          "name": "age",
          "type": "uint8"
        },
        {
          "indexed": false,
          "internalType": "string",
          "name": "breed",
          "type": "string"
        },
        {
          "indexed": false,
          "internalType": "bool",
          "name": "isAvailable",
          "type": "bool"
        },
        {
          "indexed": false,
          "internalType": "string",
          "name": "image",
          "type": "string"
        },
        {
          "indexed": false,
          "internalType": "string",
          "name": "location",
          "type": "string"
        }
      ],
      "name": "PetAdded",
      "type": "event"
    },
    {
      "inputs": [],
      "name": "adoptionInstance",
      "outputs": [
        {
          "internalType": "contract Adoption",
          "name": "",
          "type": "address"
        }
      ],
      "stateMutability": "view",
      "type": "function",
      "constant": true
    },
    {
      "inputs": [
        {
          "internalType": "uint256",
          "name": "",
          "type": "uint256"
        }
      ],
      "name": "pets",
      "outputs": [
        {
          "internalType": "string",
          "name": "name",
          "type": "string"
        },
        {
          "internalType": "uint8",
          "name": "age",
          "type": "uint8"
        },
        {
          "internalType": "string",
          "name": "breed",
          "type": "string"
        },
        {
          "internalType": "bool",
          "name": "isAvailable",
          "type": "bool"
        },
        {
          "internalType": "string",
          "name": "image",
          "type": "string"
        },
        {
          "internalType": "string",
          "name": "location",
          "type": "string"
        },
        {
          "internalType": "uint256",
          "name": "adoptionFee",
          "type": "uint256"
        }
      ],
      "stateMutability": "view",
      "type": "function",
      "constant": true
    },
    {
      "inputs": [
        {
          "internalType": "string",
          "name": "_name",
          "type": "string"
        },
        {
          "internalType": "uint8",
          "name": "_age",
          "type": "uint8"
        },
        {
          "internalType": "string",
          "name": "_breed",
          "type": "string"
        },
        {
          "internalType": "string",
          "name": "_image",
          "type": "string"
        },
        {
          "internalType": "string",
          "name": "_location",
          "type": "string"
        },
        {
          "internalType": "uint256",
          "name": "_adoptionFee",
          "type": "uint256"
        }
      ],
      "name": "addPet",
      "outputs": [],
      "stateMutability": "nonpayable",
      "type": "function"
    },
    {
      "inputs": [
        {
          "internalType": "uint256",
          "name": "_petId",
          "type": "uint256"
        }
      ],
      "name": "getPet",
      "outputs": [
        {
          "internalType": "string",
          "name": "",
          "type": "string"
        },
        {
          "internalType": "uint8",
          "name": "",
          "type": "uint8"
        },
        {
          "internalType": "string",
          "name": "",
          "type": "string"
        },
        {
          "internalType": "bool",
          "name": "",
          "type": "bool"
        },
        {
          "internalType": "string",
          "name": "",
          "type": "string"
        },
        {
          "internalType": "string",
          "name": "",
          "type": "string"
        },
        {
          "internalType": "address[]",
          "name": "",
          "type": "address[]"
        },
        {
          "internalType": "uint256",
          "name": "",
          "type": "uint256"
        }
      ],
      "stateMutability": "view",
      "type": "function",
      "constant": true
    },
    {
      "inputs": [],
      "name": "getAllPets",
      "outputs": [
        {
          "components": [
            {
              "internalType": "string",
              "name": "name",
              "type": "string"
            },
            {
              "internalType": "uint8",
              "name": "age",
              "type": "uint8"
            },
            {
              "internalType": "string",
              "name": "breed",
              "type": "string"
            },
            {
              "internalType": "bool",
              "name": "isAvailable",
              "type": "bool"
            },
            {
              "internalType": "string",
              "name": "image",
              "type": "string"
            },
            {
              "internalType": "string",
              "name": "location",
              "type": "string"
            },
            {
              "internalType": "address[]",
              "name": "voters",
              "type": "address[]"
            },
            {
              "internalType": "uint256",
              "name": "adoptionFee",
              "type": "uint256"
            }
          ],
          "internalType": "struct PetDatabase.Pet[]",
          "name": "",
          "type": "tuple[]"
        }
      ],
      "stateMutability": "view",
      "type": "function",
      "constant": true
    },
    {
      "inputs": [
        {
          "internalType": "uint256",
          "name": "_petId",
          "type": "uint256"
        }
      ],
      "name": "addVoter",
      "outputs": [],
      "stateMutability": "nonpayable",
      "type": "function"
    },
    {
      "inputs": [
        {
          "internalType": "uint256",
          "name": "_petId",
          "type": "uint256"
        }
      ],
      "name": "removeVoter",
      "outputs": [],
      "stateMutability": "nonpayable",
      "type": "function"
    },
    {
      "inputs": [
        {
          "internalType": "uint256",
          "name": "_petId",
          "type": "uint256"
        }
      ],
      "name": "hasVoted",
      "outputs": [
        {
          "internalType": "bool",
          "name": "",
          "type": "bool"
        }
      ],
      "stateMutability": "view",
      "type": "function",
      "constant": true
    },
    {
      "inputs": [
        {
          "internalType": "uint256",
          "name": "_petId",
          "type": "uint256"
        },
        {
          "internalType": "address payable",
          "name": "_ownerAddress",
          "type": "address"
        }
      ],
      "name": "adoptPet",
      "outputs": [],
      "stateMutability": "payable",
      "type": "function",
      "payable": true
    },
    {
      "inputs": [],
      "name": "getPetsAdopted",
      "outputs": [
        {
          "internalType": "uint256[]",
          "name": "",
          "type": "uint256[]"
        }
      ],
      "stateMutability": "view",
      "type": "function",
      "constant": true
    },
    {
      "inputs": [
        {
          "internalType": "string",
          "name": "_name",
          "type": "string"
        },
        {
          "internalType": "uint8",
          "name": "_age",
          "type": "uint8"
        },
        {
          "internalType": "string",
          "name": "_breed",
          "type": "string"
        },
        {
          "internalType": "bool",
          "name": "_isAvailable",
          "type": "bool"
        },
        {
          "internalType": "string",
          "name": "_location",
          "type": "string"
        }
      ],
      "name": "filterPets",
      "outputs": [
        {
          "internalType": "uint256[]",
          "name": "",
          "type": "uint256[]"
        }
      ],
      "stateMutability": "view",
      "type": "function",
      "constant": true
    },
    {
      "inputs": [
        {
          "internalType": "address payable",
          "name": "donationAddress",
          "type": "address"
        }
      ],
      "name": "donate",
      "outputs": [],
      "stateMutability": "payable",
      "type": "function",
      "payable": true
    }
  ],
  "bytecode": "0x608060405260006001553480156200001657600080fd5b50604051620030213803806200302183398181016040528101906200003c9190620000ee565b80600260006101000a81548173ffffffffffffffffffffffffffffffffffffffff021916908373ffffffffffffffffffffffffffffffffffffffff1602179055505062000120565b600080fd5b600073ffffffffffffffffffffffffffffffffffffffff82169050919050565b6000620000b68262000089565b9050919050565b620000c881620000a9565b8114620000d457600080fd5b50565b600081519050620000e881620000bd565b92915050565b60006020828403121562000107576200010662000084565b5b60006200011784828501620000d7565b91505092915050565b612ef180620001306000396000f3fe6080604052600436106100a65760003560e01c806387ddc0ec1161006457806387ddc0ec146101c9578063a0f3c7b8146101f2578063b64607881461020e578063cfb869bf14610237578063d8f7a0bb1461027a578063ecca031f146102a3576100a6565b8062362a95146100ab57806349b50d3a146100c757806359d55194146100f25780635b236d97146101365780636d31df7e1461016157806371e43da61461019e575b600080fd5b6100c560048036038101906100c09190611bd4565b6102e0565b005b3480156100d357600080fd5b506100dc61036d565b6040516100e99190611cc9565b60405180910390f35b3480156100fe57600080fd5b5061011960048036038101906101149190611d17565b610591565b60405161012d989796959493929190611eea565b60405180910390f35b34801561014257600080fd5b5061014b610973565b60405161015891906121f0565b60405180910390f35b34801561016d57600080fd5b506101886004803603810190610183919061239f565b610ceb565b6040516101959190611cc9565b60405180910390f35b3480156101aa57600080fd5b506101b3610ff4565b6040516101c091906124cd565b60405180910390f35b3480156101d557600080fd5b506101f060048036038101906101eb9190611d17565b61101a565b005b61020c600480360381019061020791906124e8565b611214565b005b34801561021a57600080fd5b5061023560048036038101906102309190612528565b611468565b005b34801561024357600080fd5b5061025e60048036038101906102599190611d17565b61163f565b6040516102719796959493929190612625565b60405180910390f35b34801561028657600080fd5b506102a1600480360381019061029c9190611d17565b6118cb565b005b3480156102af57600080fd5b506102ca60048036038101906102c59190611d17565b61199b565b6040516102d791906126b0565b60405180910390f35b60003411610323576040517f08c379a000000000000000000000000000000000000000000000000000000000815260040161031a9061273d565b60405180910390fd5b8073ffffffffffffffffffffffffffffffffffffffff166108fc349081150290604051600060405180830381858888f19350505050158015610369573d6000803e3d6000fd5b5050565b60606000808054905067ffffffffffffffff81111561038f5761038e61221c565b5b6040519080825280602002602001820160405280156103bd5781602001602082028036833780820191505090505b5090506000805b6000805490508110156104e1573373ffffffffffffffffffffffffffffffffffffffff16600260009054906101000a900473ffffffffffffffffffffffffffffffffffffffff1673ffffffffffffffffffffffffffffffffffffffff1663a7338297836040518263ffffffff1660e01b8152600401610443919061275d565b602060405180830381865afa158015610460573d6000803e3d6000fd5b505050506040513d601f19601f8201168201806040525081019061048491906127a4565b73ffffffffffffffffffffffffffffffffffffffff16036104ce57808383815181106104b3576104b26127d1565b5b60200260200101818152505081806104ca9061282f565b9250505b80806104d99061282f565b9150506103c4565b5060008167ffffffffffffffff8111156104fe576104fd61221c565b5b60405190808252806020026020018201604052801561052c5781602001602082028036833780820191505090505b50905060005b828110156105875783818151811061054d5761054c6127d1565b5b6020026020010151828281518110610568576105676127d1565b5b602002602001018181525050808061057f9061282f565b915050610532565b5080935050505090565b606060006060600060608060606000808054905089106105e6576040517f08c379a00000000000000000000000000000000000000000000000000000000081526004016105dd906128c3565b60405180910390fd5b6000808a815481106105fb576105fa6127d1565b5b90600052602060002090600802016040518061010001604052908160008201805461062590612912565b80601f016020809104026020016040519081016040528092919081815260200182805461065190612912565b801561069e5780601f106106735761010080835404028352916020019161069e565b820191906000526020600020905b81548152906001019060200180831161068157829003601f168201915b505050505081526020016001820160009054906101000a900460ff1660ff1660ff1681526020016002820180546106d490612912565b80601f016020809104026020016040519081016040528092919081815260200182805461070090612912565b801561074d5780601f106107225761010080835404028352916020019161074d565b820191906000526020600020905b81548152906001019060200180831161073057829003601f168201915b505050505081526020016003820160009054906101000a900460ff1615151515815260200160048201805461078190612912565b80601f01602080910402602001604051908101604052809291908181526020018280546107ad90612912565b80156107fa5780601f106107cf576101008083540402835291602001916107fa565b820191906000526020600020905b8154815290600101906020018083116107dd57829003601f168201915b5050505050815260200160058201805461081390612912565b80601f016020809104026020016040519081016040528092919081815260200182805461083f90612912565b801561088c5780601f106108615761010080835404028352916020019161088c565b820191906000526020600020905b81548152906001019060200180831161086f57829003601f168201915b505050505081526020016006820180548060200260200160405190810160405280929190818152602001828054801561091a57602002820191906000526020600020905b8160009054906101000a900473ffffffffffffffffffffffffffffffffffffffff1673ffffffffffffffffffffffffffffffffffffffff16815260200190600101908083116108d0575b505050505081526020016007820154815250509050806000015181602001518260400151836060015184608001518560a001518660c001518760e001519850985098509850985098509850985050919395975091939597565b60606000805480602002602001604051908101604052809291908181526020016000905b82821015610ce25783829060005260206000209060080201604051806101000160405290816000820180546109cb90612912565b80601f01602080910402602001604051908101604052809291908181526020018280546109f790612912565b8015610a445780601f10610a1957610100808354040283529160200191610a44565b820191906000526020600020905b815481529060010190602001808311610a2757829003601f168201915b505050505081526020016001820160009054906101000a900460ff1660ff1660ff168152602001600282018054610a7a90612912565b80601f0160208091040260200160405190810160405280929190818152602001828054610aa690612912565b8015610af35780601f10610ac857610100808354040283529160200191610af3565b820191906000526020600020905b815481529060010190602001808311610ad657829003601f168201915b505050505081526020016003820160009054906101000a900460ff16151515158152602001600482018054610b2790612912565b80601f0160208091040260200160405190810160405280929190818152602001828054610b5390612912565b8015610ba05780601f10610b7557610100808354040283529160200191610ba0565b820191906000526020600020905b815481529060010190602001808311610b8357829003601f168201915b50505050508152602001600582018054610bb990612912565b80601f0160208091040260200160405190810160405280929190818152602001828054610be590612912565b8015610c325780601f10610c0757610100808354040283529160200191610c32565b820191906000526020600020905b815481529060010190602001808311610c1557829003601f168201915b5050505050815260200160068201805480602002602001604051908101604052809291908181526020018280548015610cc057602002820191906000526020600020905b8160009054906101000a900473ffffffffffffffffffffffffffffffffffffffff1673ffffffffffffffffffffffffffffffffffffffff1681526020019060010190808311610c76575b5050505050815260200160078201548152505081526020019060010190610997565b50505050905090565b60606000808054905067ffffffffffffffff811115610d0d57610d0c61221c565b5b604051908082528060200260200182016040528015610d3b5781602001602082028036833780820191505090505b5090506000805b600080549050811015610f3e576000808a511480610d9f5750898051906020012060008381548110610d7757610d766127d1565b5b9060005260206000209060080201600001604051610d9591906129e6565b6040518091039020145b90506000808a60ff161480610deb57508960ff1660008481548110610dc757610dc66127d1565b5b906000526020600020906008020160010160009054906101000a900460ff1660ff16145b90506000808a511480610e3d5750898051906020012060008581548110610e1557610e146127d1565b5b9060005260206000209060080201600201604051610e3391906129e6565b6040518091039020145b90506000808581548110610e5457610e536127d1565b5b906000526020600020906008020160030160009054906101000a900460ff1615158a15151490506000808a511480610ecb5750898051906020012060008781548110610ea357610ea26127d1565b5b9060005260206000209060080201600501604051610ec191906129e6565b6040518091039020145b9050848015610ed75750835b8015610ee05750825b8015610ee95750815b8015610ef25750805b15610f265785888881518110610f0b57610f0a6127d1565b5b6020026020010181815250508680610f229061282f565b9750505b50505050508080610f369061282f565b915050610d42565b5060008167ffffffffffffffff811115610f5b57610f5a61221c565b5b604051908082528060200260200182016040528015610f895781602001602082028036833780820191505090505b50905060005b82811015610fe457838181518110610faa57610fa96127d1565b5b6020026020010151828281518110610fc557610fc46127d1565b5b6020026020010181815250508080610fdc9061282f565b915050610f8f565b5080935050505095945050505050565b600260009054906101000a900473ffffffffffffffffffffffffffffffffffffffff1681565b6000805490508110611061576040517f08c379a0000000000000000000000000000000000000000000000000000000008152600401611058906128c3565b60405180910390fd5b6000808281548110611076576110756127d1565b5b9060005260206000209060080201600601905060005b818054905081101561120f573373ffffffffffffffffffffffffffffffffffffffff168282815481106110c2576110c16127d1565b5b9060005260206000200160009054906101000a900473ffffffffffffffffffffffffffffffffffffffff1673ffffffffffffffffffffffffffffffffffffffff16036111fc57816001838054905061111a91906129fd565b8154811061112b5761112a6127d1565b5b9060005260206000200160009054906101000a900473ffffffffffffffffffffffffffffffffffffffff16828281548110611169576111686127d1565b5b9060005260206000200160006101000a81548173ffffffffffffffffffffffffffffffffffffffff021916908373ffffffffffffffffffffffffffffffffffffffff160217905550818054806111c2576111c1612a31565b5b6001900381819060005260206000200160006101000a81549073ffffffffffffffffffffffffffffffffffffffff0219169055905561120f565b80806112079061282f565b91505061108c565b505050565b600080549050821061125b576040517f08c379a0000000000000000000000000000000000000000000000000000000008152600401611252906128c3565b60405180910390fd5b6000828154811061126f5761126e6127d1565b5b906000526020600020906008020160030160009054906101000a900460ff166112cd576040517f08c379a00000000000000000000000000000000000000000000000000000000081526004016112c490612ad2565b60405180910390fd5b60008083815481106112e2576112e16127d1565b5b9060005260206000209060080201600701549050803373ffffffffffffffffffffffffffffffffffffffff16311015611350576040517f08c379a000000000000000000000000000000000000000000000000000000000815260040161134790612b3e565b60405180910390fd5b8173ffffffffffffffffffffffffffffffffffffffff166108fc829081150290604051600060405180830381858888f19350505050158015611396573d6000803e3d6000fd5b5060008084815481106113ac576113ab6127d1565b5b906000526020600020906008020160030160006101000a81548160ff021916908315150217905550600260009054906101000a900473ffffffffffffffffffffffffffffffffffffffff1673ffffffffffffffffffffffffffffffffffffffff16630689093d84336040518363ffffffff1660e01b8152600401611431929190612b6d565b600060405180830381600087803b15801561144b57600080fd5b505af115801561145f573d6000803e3d6000fd5b50505050505050565b60006040518061010001604052808881526020018760ff168152602001868152602001600115158152602001858152602001848152602001600067ffffffffffffffff8111156114bb576114ba61221c565b5b6040519080825280602002602001820160405280156114e95781602001602082028036833780820191505090505b50815260200183815250908060018154018082558091505060019003906000526020600020906008020160009091909190915060008201518160000190816115319190612d38565b5060208201518160010160006101000a81548160ff021916908360ff16021790555060408201518160020190816115689190612d38565b5060608201518160030160006101000a81548160ff021916908315150217905550608082015181600401908161159e9190612d38565b5060a08201518160050190816115b49190612d38565b5060c08201518160060190805190602001906115d1929190611abb565b5060e082015181600701555050600180546115ec9190612e0a565b6001819055506001547fa09af93fd3c05d99bbda6854a7466592f4450ab905cce0fe32841e980a2f3c008787876001888860405161162f96959493929190612e3e565b60405180910390a2505050505050565b6000818154811061164f57600080fd5b906000526020600020906008020160009150905080600001805461167290612912565b80601f016020809104026020016040519081016040528092919081815260200182805461169e90612912565b80156116eb5780601f106116c0576101008083540402835291602001916116eb565b820191906000526020600020905b8154815290600101906020018083116116ce57829003601f168201915b5050505050908060010160009054906101000a900460ff169080600201805461171390612912565b80601f016020809104026020016040519081016040528092919081815260200182805461173f90612912565b801561178c5780601f106117615761010080835404028352916020019161178c565b820191906000526020600020905b81548152906001019060200180831161176f57829003601f168201915b5050505050908060030160009054906101000a900460ff16908060040180546117b490612912565b80601f01602080910402602001604051908101604052809291908181526020018280546117e090612912565b801561182d5780601f106118025761010080835404028352916020019161182d565b820191906000526020600020905b81548152906001019060200180831161181057829003601f168201915b50505050509080600501805461184290612912565b80601f016020809104026020016040519081016040528092919081815260200182805461186e90612912565b80156118bb5780601f10611890576101008083540402835291602001916118bb565b820191906000526020600020905b81548152906001019060200180831161189e57829003601f168201915b5050505050908060070154905087565b6000805490508110611912576040517f08c379a0000000000000000000000000000000000000000000000000000000008152600401611909906128c3565b60405180910390fd5b60008181548110611926576119256127d1565b5b9060005260206000209060080201600601339080600181540180825580915050600190039060005260206000200160009091909190916101000a81548173ffffffffffffffffffffffffffffffffffffffff021916908373ffffffffffffffffffffffffffffffffffffffff16021790555050565b6000808054905082106119e3576040517f08c379a00000000000000000000000000000000000000000000000000000000081526004016119da906128c3565b60405180910390fd5b600033905060008084815481106119fd576119fc6127d1565b5b9060005260206000209060080201600601905060005b8180549050811015611aae578273ffffffffffffffffffffffffffffffffffffffff16828281548110611a4957611a486127d1565b5b9060005260206000200160009054906101000a900473ffffffffffffffffffffffffffffffffffffffff1673ffffffffffffffffffffffffffffffffffffffff1603611a9b5760019350505050611ab6565b8080611aa69061282f565b915050611a13565b506000925050505b919050565b828054828255906000526020600020908101928215611b34579160200282015b82811115611b335782518260006101000a81548173ffffffffffffffffffffffffffffffffffffffff021916908373ffffffffffffffffffffffffffffffffffffffff16021790555091602001919060010190611adb565b5b509050611b419190611b45565b5090565b5b80821115611b5e576000816000905550600101611b46565b5090565b6000604051905090565b600080fd5b600080fd5b600073ffffffffffffffffffffffffffffffffffffffff82169050919050565b6000611ba182611b76565b9050919050565b611bb181611b96565b8114611bbc57600080fd5b50565b600081359050611bce81611ba8565b92915050565b600060208284031215611bea57611be9611b6c565b5b6000611bf884828501611bbf565b91505092915050565b600081519050919050565b600082825260208201905092915050565b6000819050602082019050919050565b6000819050919050565b611c4081611c2d565b82525050565b6000611c528383611c37565b60208301905092915050565b6000602082019050919050565b6000611c7682611c01565b611c808185611c0c565b9350611c8b83611c1d565b8060005b83811015611cbc578151611ca38882611c46565b9750611cae83611c5e565b925050600181019050611c8f565b5085935050505092915050565b60006020820190508181036000830152611ce38184611c6b565b905092915050565b611cf481611c2d565b8114611cff57600080fd5b50565b600081359050611d1181611ceb565b92915050565b600060208284031215611d2d57611d2c611b6c565b5b6000611d3b84828501611d02565b91505092915050565b600081519050919050565b600082825260208201905092915050565b60005b83811015611d7e578082015181840152602081019050611d63565b60008484015250505050565b6000601f19601f8301169050919050565b6000611da682611d44565b611db08185611d4f565b9350611dc0818560208601611d60565b611dc981611d8a565b840191505092915050565b600060ff82169050919050565b611dea81611dd4565b82525050565b60008115159050919050565b611e0581611df0565b82525050565b600081519050919050565b600082825260208201905092915050565b6000819050602082019050919050565b6000611e4282611b76565b9050919050565b611e5281611e37565b82525050565b6000611e648383611e49565b60208301905092915050565b6000602082019050919050565b6000611e8882611e0b565b611e928185611e16565b9350611e9d83611e27565b8060005b83811015611ece578151611eb58882611e58565b9750611ec083611e70565b925050600181019050611ea1565b5085935050505092915050565b611ee481611c2d565b82525050565b6000610100820190508181036000830152611f05818b611d9b565b9050611f14602083018a611de1565b8181036040830152611f268189611d9b565b9050611f356060830188611dfc565b8181036080830152611f478187611d9b565b905081810360a0830152611f5b8186611d9b565b905081810360c0830152611f6f8185611e7d565b9050611f7e60e0830184611edb565b9998505050505050505050565b600081519050919050565b600082825260208201905092915050565b6000819050602082019050919050565b600082825260208201905092915050565b6000611fd382611d44565b611fdd8185611fb7565b9350611fed818560208601611d60565b611ff681611d8a565b840191505092915050565b61200a81611dd4565b82525050565b61201981611df0565b82525050565b600082825260208201905092915050565b600061203b82611e0b565b612045818561201f565b935061205083611e27565b8060005b838110156120815781516120688882611e58565b975061207383611e70565b925050600181019050612054565b5085935050505092915050565b60006101008301600083015184820360008601526120ac8282611fc8565b91505060208301516120c16020860182612001565b50604083015184820360408601526120d98282611fc8565b91505060608301516120ee6060860182612010565b50608083015184820360808601526121068282611fc8565b91505060a083015184820360a08601526121208282611fc8565b91505060c083015184820360c086015261213a8282612030565b91505060e083015161214f60e0860182611c37565b508091505092915050565b6000612166838361208e565b905092915050565b6000602082019050919050565b600061218682611f8b565b6121908185611f96565b9350836020820285016121a285611fa7565b8060005b858110156121de57848403895281516121bf858261215a565b94506121ca8361216e565b925060208a019950506001810190506121a6565b50829750879550505050505092915050565b6000602082019050818103600083015261220a818461217b565b905092915050565b600080fd5b600080fd5b7f4e487b7100000000000000000000000000000000000000000000000000000000600052604160045260246000fd5b61225482611d8a565b810181811067ffffffffffffffff821117156122735761227261221c565b5b80604052505050565b6000612286611b62565b9050612292828261224b565b919050565b600067ffffffffffffffff8211156122b2576122b161221c565b5b6122bb82611d8a565b9050602081019050919050565b82818337600083830152505050565b60006122ea6122e584612297565b61227c565b90508281526020810184848401111561230657612305612217565b5b6123118482856122c8565b509392505050565b600082601f83011261232e5761232d612212565b5b813561233e8482602086016122d7565b91505092915050565b61235081611dd4565b811461235b57600080fd5b50565b60008135905061236d81612347565b92915050565b61237c81611df0565b811461238757600080fd5b50565b60008135905061239981612373565b92915050565b600080600080600060a086880312156123bb576123ba611b6c565b5b600086013567ffffffffffffffff8111156123d9576123d8611b71565b5b6123e588828901612319565b95505060206123f68882890161235e565b945050604086013567ffffffffffffffff81111561241757612416611b71565b5b61242388828901612319565b93505060606124348882890161238a565b925050608086013567ffffffffffffffff81111561245557612454611b71565b5b61246188828901612319565b9150509295509295909350565b6000819050919050565b600061249361248e61248984611b76565b61246e565b611b76565b9050919050565b60006124a582612478565b9050919050565b60006124b78261249a565b9050919050565b6124c7816124ac565b82525050565b60006020820190506124e260008301846124be565b92915050565b600080604083850312156124ff576124fe611b6c565b5b600061250d85828601611d02565b925050602061251e85828601611bbf565b9150509250929050565b60008060008060008060c0878903121561254557612544611b6c565b5b600087013567ffffffffffffffff81111561256357612562611b71565b5b61256f89828a01612319565b965050602061258089828a0161235e565b955050604087013567ffffffffffffffff8111156125a1576125a0611b71565b5b6125ad89828a01612319565b945050606087013567ffffffffffffffff8111156125ce576125cd611b71565b5b6125da89828a01612319565b935050608087013567ffffffffffffffff8111156125fb576125fa611b71565b5b61260789828a01612319565b92505060a061261889828a01611d02565b9150509295509295509295565b600060e082019050818103600083015261263f818a611d9b565b905061264e6020830189611de1565b81810360408301526126608188611d9b565b905061266f6060830187611dfc565b81810360808301526126818186611d9b565b905081810360a08301526126958185611d9b565b90506126a460c0830184611edb565b98975050505050505050565b60006020820190506126c56000830184611dfc565b92915050565b7f446f6e6174696f6e20616d6f756e74206d75737420626520677265617465722060008201527f7468616e20300000000000000000000000000000000000000000000000000000602082015250565b6000612727602683611d4f565b9150612732826126cb565b604082019050919050565b600060208201905081810360008301526127568161271a565b9050919050565b60006020820190506127726000830184611edb565b92915050565b61278181611e37565b811461278c57600080fd5b50565b60008151905061279e81612778565b92915050565b6000602082840312156127ba576127b9611b6c565b5b60006127c88482850161278f565b91505092915050565b7f4e487b7100000000000000000000000000000000000000000000000000000000600052603260045260246000fd5b7f4e487b7100000000000000000000000000000000000000000000000000000000600052601160045260246000fd5b600061283a82611c2d565b91507fffffffffffffffffffffffffffffffffffffffffffffffffffffffffffffffff820361286c5761286b612800565b5b600182019050919050565b7f496e76616c696420706574204944000000000000000000000000000000000000600082015250565b60006128ad600e83611d4f565b91506128b882612877565b602082019050919050565b600060208201905081810360008301526128dc816128a0565b9050919050565b7f4e487b7100000000000000000000000000000000000000000000000000000000600052602260045260246000fd5b6000600282049050600182168061292a57607f821691505b60208210810361293d5761293c6128e3565b5b50919050565b600081905092915050565b60008190508160005260206000209050919050565b6000815461297081612912565b61297a8186612943565b9450600182166000811461299557600181146129aa576129dd565b60ff19831686528115158202860193506129dd565b6129b38561294e565b60005b838110156129d5578154818901526001820191506020810190506129b6565b838801955050505b50505092915050565b60006129f28284612963565b915081905092915050565b6000612a0882611c2d565b9150612a1383611c2d565b9250828203905081811115612a2b57612a2a612800565b5b92915050565b7f4e487b7100000000000000000000000000000000000000000000000000000000600052603160045260246000fd5b7f506574206973206e6f7420617661696c61626c6520666f722061646f7074696f60008201527f6e00000000000000000000000000000000000000000000000000000000000000602082015250565b6000612abc602183611d4f565b9150612ac782612a60565b604082019050919050565b60006020820190508181036000830152612aeb81612aaf565b9050919050565b7f496e73756666696369656e742062616c616e6365000000000000000000000000600082015250565b6000612b28601483611d4f565b9150612b3382612af2565b602082019050919050565b60006020820190508181036000830152612b5781612b1b565b9050919050565b612b6781611e37565b82525050565b6000604082019050612b826000830185611edb565b612b8f6020830184612b5e565b9392505050565b60008190508160005260206000209050919050565b60006020601f8301049050919050565b600082821b905092915050565b600060088302612bf87fffffffffffffffffffffffffffffffffffffffffffffffffffffffffffffffff82612bbb565b612c028683612bbb565b95508019841693508086168417925050509392505050565b6000612c35612c30612c2b84611c2d565b61246e565b611c2d565b9050919050565b6000819050919050565b612c4f83612c1a565b612c63612c5b82612c3c565b848454612bc8565b825550505050565b600090565b612c78612c6b565b612c83818484612c46565b505050565b5b81811015612ca757612c9c600082612c70565b600181019050612c89565b5050565b601f821115612cec57612cbd81612b96565b612cc684612bab565b81016020851015612cd5578190505b612ce9612ce185612bab565b830182612c88565b50505b505050565b600082821c905092915050565b6000612d0f60001984600802612cf1565b1980831691505092915050565b6000612d288383612cfe565b9150826002028217905092915050565b612d4182611d44565b67ffffffffffffffff811115612d5a57612d5961221c565b5b612d648254612912565b612d6f828285612cab565b600060209050601f831160018114612da25760008415612d90578287015190505b612d9a8582612d1c565b865550612e02565b601f198416612db086612b96565b60005b82811015612dd857848901518255600182019150602085019450602081019050612db3565b86831015612df55784890151612df1601f891682612cfe565b8355505b6001600288020188555050505b505050505050565b6000612e1582611c2d565b9150612e2083611c2d565b9250828201905080821115612e3857612e37612800565b5b92915050565b600060c0820190508181036000830152612e588189611d9b565b9050612e676020830188611de1565b8181036040830152612e798187611d9b565b9050612e886060830186611dfc565b8181036080830152612e9a8185611d9b565b905081810360a0830152612eae8184611d9b565b905097965050505050505056fea2646970667358221220416e1edf365e81e1f4ad5181fd3c23477e39ca75c552f0c44ee47b25bdc067e564736f6c63430008130033",
  "immutableReferences": {},
  "source": "//SPDX-License-Identifier: UNLICENSED\npragma solidity ^0.8.19;\n\nimport \"./Adoption.sol\";\n\ncontract PetDatabase {\n    struct Pet {\n        string name;\n        uint8 age;\n        string breed;\n        bool isAvailable;\n        string image; // New field for the image of the pet\n        string location;\n        address[] voters;\n        uint256 adoptionFee;\n    }\n\n    Pet[] public pets; // Array to store pets\n    uint petCount = 0;\n    Adoption public adoptionInstance;\n\n    constructor(address _adoptionInstance) {\n        adoptionInstance = Adoption(_adoptionInstance);\n    }\n\n    // Adoption public adoptionContract; // Instance of the Adoption contract\n\n    event PetAdded(\n        uint256 indexed petId,\n        string name,\n        uint8 age,\n        string breed,\n        bool isAvailable,\n        string image, // Updated event to include image\n        string location\n    );\n\n    // The following function adds a pet to the blockchain of pets [REQUIRES GAS]\n    function addPet(\n        string memory _name,\n        uint8 _age,\n        string memory _breed,\n        string memory _image, // New parameter for the image\n        string memory _location,\n        uint256 _adoptionFee\n    ) external {\n        pets.push(\n            Pet(\n                _name,\n                _age,\n                _breed,\n                true,\n                _image,\n                _location,\n                new address[](0),\n                _adoptionFee\n            )\n        ); // Push new pet to the array\n        petCount = petCount + 1; // Calculate the pet ID\n\n        emit PetAdded(petCount, _name, _age, _breed, true, _image, _location); // Emit the event\n    }\n\n    // The following function returns a single pet given a specific petId [DOES NOT REQUIRE GAS]\n    function getPet(\n        uint256 _petId\n    )\n        external\n        view\n        returns (\n            string memory,\n            uint8,\n            string memory,\n            bool,\n            string memory,\n            string memory,\n            address[] memory,\n            uint256\n        )\n    {\n        require(_petId < pets.length, \"Invalid pet ID\"); // Validate pet ID\n\n        Pet memory pet = pets[_petId];\n        return (\n            pet.name,\n            pet.age,\n            pet.breed,\n            pet.isAvailable,\n            pet.image,\n            pet.location,\n            pet.voters,\n            pet.adoptionFee\n        );\n    }\n\n    // The following function returns all pets stored in the blockchain [DOES NOT REQUIRE GAS]\n    function getAllPets() external view returns (Pet[] memory) {\n        return pets;\n    }\n\n    function addVoter(uint256 _petId) external {\n        require(_petId < pets.length, \"Invalid pet ID\");\n        pets[_petId].voters.push(msg.sender);\n    }\n\n    // Function to remove the sender's address from the voters array of a pet\n    function removeVoter(uint256 _petId) external {\n        require(_petId < pets.length, \"Invalid pet ID\");\n        address[] storage voters = pets[_petId].voters;\n        for (uint256 i = 0; i < voters.length; i++) {\n            if (voters[i] == msg.sender) {\n                voters[i] = voters[voters.length - 1];\n                voters.pop();\n                break;\n            }\n        }\n    }\n\n    function hasVoted(uint256 _petId) external view returns (bool) {\n        require(_petId < pets.length, \"Invalid pet ID\");\n        address sender = msg.sender;\n        address[] storage voters = pets[_petId].voters;\n\n        for (uint256 i = 0; i < voters.length; i++) {\n            if (voters[i] == sender) {\n                return true;\n            }\n        }\n\n        return false;\n    }\n\n    function adoptPet(uint256 _petId, address payable _ownerAddress) external payable{\n        require(_petId < pets.length, \"Invalid pet ID\"); // Validate pet ID\n        require(pets[_petId].isAvailable, \"Pet is not available for adoption\");\n\n        uint256 adoptionFee = pets[_petId].adoptionFee;\n        require(msg.sender.balance >= adoptionFee, \"Insufficient balance\");\n\n\n        // Deduct adoption fee from sender and send it to owner\n        _ownerAddress.transfer(adoptionFee);\n\n        // Mark the pet as unavailable for adoption\n        pets[_petId].isAvailable = false;\n\n        // Call the adopt function in the Adoption contract\n        adoptionInstance.adopt(_petId, msg.sender);\n\n        // Emit an event to indicate the pet has been adopted\n    }\n\n    function getPetsAdopted() external view returns (uint256[] memory) {\n        uint256[] memory adoptedPetIds = new uint256[](pets.length);\n        uint256 adoptedCount = 0;\n\n        for (uint256 i = 0; i < pets.length; i++) {\n            if (adoptionInstance.getAdopter(i) == msg.sender) {\n                adoptedPetIds[adoptedCount] = i;\n                adoptedCount++;\n            }\n        }\n\n        uint256[] memory result = new uint256[](adoptedCount);\n        for (uint256 j = 0; j < adoptedCount; j++) {\n            result[j] = adoptedPetIds[j];\n        }\n\n        return result;\n    }\n\n    // // The following function returns an array of pet IDs that match the filtering criteria [DOES NOT REQUIRE GAS]\n    // function updatePetAvailability(\n    //     uint256 _petId,\n    //     bool _isAvailable,\n    //     address sender\n    // ) external {\n    //     require(_petId < pets.length, \"Invalid pet ID\"); // Validate pet ID\n    //     if (_isAvailable) {\n    //         adoptionInstance.adopt(_petId, sender);\n    //         pets[_petId].isAvailable = _isAvailable;\n    //     } else {\n    //         adoptionInstance.disown(_petId);\n    //         pets[_petId].isAvailable = _isAvailable;\n    //     }\n    // }\n\n    function filterPets(\n        string memory _name,\n        uint8 _age,\n        string memory _breed,\n        bool _isAvailable,\n        string memory _location\n    ) external view returns (uint256[] memory) {\n        uint256[] memory matchingPetIds = new uint256[](pets.length);\n        uint256 matchingCount = 0;\n\n        for (uint256 i = 0; i < pets.length; i++) {\n            bool nameMatches = bytes(_name).length == 0 ||\n                keccak256(bytes(pets[i].name)) == keccak256(bytes(_name));\n            bool ageMatches = _age == 0 || pets[i].age == _age;\n            bool breedMatches = bytes(_breed).length == 0 ||\n                keccak256(bytes(pets[i].breed)) == keccak256(bytes(_breed));\n            bool availabilityMatches = _isAvailable == pets[i].isAvailable;\n            bool locationMatches = bytes(_location).length == 0 ||\n                keccak256(bytes(pets[i].location)) ==\n                keccak256(bytes(_location));\n            if (\n                nameMatches &&\n                ageMatches &&\n                breedMatches &&\n                availabilityMatches &&\n                locationMatches\n            ) {\n                matchingPetIds[matchingCount] = i;\n                matchingCount++;\n            }\n        }\n\n        uint256[] memory result = new uint256[](matchingCount);\n        for (uint256 j = 0; j < matchingCount; j++) {\n            result[j] = matchingPetIds[j];\n        }\n\n        return result;\n    }\n\n    // function filterPets(\n    //     string memory _name,\n    //     uint8 _age,\n    //     string memory _breed,\n    //     bool _isAvailable,\n    //     string memory _location\n    // ) external view returns (uint256[] memory) {\n    //     uint256[] memory matchingPetIds = new uint256[](pets.length);\n    //     uint256 matchingCount = 0;\n\n    //     for (uint256 i = 0; i < pets.length; i++) {\n    //         bool nameMatches = bytes(_name).length == 0 ||\n    //             keccak256(bytes(pets[i].name)) == keccak256(bytes(_name));\n    //         bool ageMatches = _age == 0 || pets[i].age == _age;\n    //         bool breedMatches = bytes(_breed).length == 0 ||\n    //             keccak256(bytes(pets[i].breed)) == keccak256(bytes(_breed));\n    //         bool availabilityMatches = _isAvailable == pets[i].isAvailable;\n    //         bool locationMatches = bytes(_location).length == 0 ||\n    //             keccak256(bytes(pets[i].location)) ==\n    //             keccak256(bytes(_location));\n    //         if (\n    //             nameMatches &&\n    //             ageMatches &&\n    //             breedMatches &&\n    //             availabilityMatches &&\n    //             locationMatches\n    //         ) {\n    //             matchingPetIds[matchingCount] = i;\n    //             matchingCount++;\n    //         }\n    //     }\n\n    //     for (uint256 i = 0; i < matchingCount - 1; i++) {\n    //         for (uint256 j = i + 1; j < matchingCount; j++) {\n    //             if (\n    //                 pets[matchingPetIds[i]].voters.length <\n    //                 pets[matchingPetIds[j]].voters.length\n    //             ) {\n    //                 (matchingPetIds[i], matchingPetIds[j]) = (\n    //                     matchingPetIds[j],\n    //                     matchingPetIds[i]\n    //                 );\n    //             }\n    //         }\n    //     }\n\n    //     uint256[] memory result = new uint256[](matchingCount);\n    //     for (uint256 j = 0; j < matchingCount; j++) {\n    //         result[j] = matchingPetIds[j];\n    //     }\n\n    //     return result;\n    // }\n\n    function donate(address payable donationAddress) external payable {\n        require(msg.value > 0, \"Donation amount must be greater than 0\");\n        donationAddress.transfer(msg.value);\n    }\n}\n",
  "sourcePath": "/Users/vikramnarra/Code/Pets/contracts/PetDatabase.sol",
  "compiler": {
    "name": "solc",
    "version": "0.8.19+commit.7dd6d404.Emscripten.clang"
  },
  "schemaVersion": "3.4.15",
  "updatedAt": "2023-08-20T02:17:56.279Z",
  "networkType": "ethereum",
  "devdoc": {
    "kind": "dev",
    "methods": {},
    "version": 1
  },
  "userdoc": {
    "kind": "user",
    "methods": {},
    "version": 1
  }
}