{
  "contractName": "PetDatabase",
  "abi": [
    {
      "anonymous": false,
      "inputs": [
        {
          "indexed": true,
          "internalType": "uint256",
          "name": "petId",
          "type": "uint256"
        },
        {
          "indexed": false,
          "internalType": "string",
          "name": "name",
          "type": "string"
        },
        {
          "indexed": false,
          "internalType": "uint8",
          "name": "age",
          "type": "uint8"
        },
        {
          "indexed": false,
          "internalType": "string",
          "name": "breed",
          "type": "string"
        },
        {
          "indexed": false,
          "internalType": "bool",
          "name": "isAvailable",
          "type": "bool"
        },
        {
          "indexed": false,
          "internalType": "string",
          "name": "image",
          "type": "string"
        }
      ],
      "name": "PetAdded",
      "type": "event"
    },
    {
      "inputs": [
        {
          "internalType": "uint256",
          "name": "",
          "type": "uint256"
        }
      ],
      "name": "pets",
      "outputs": [
        {
          "internalType": "string",
          "name": "name",
          "type": "string"
        },
        {
          "internalType": "uint8",
          "name": "age",
          "type": "uint8"
        },
        {
          "internalType": "string",
          "name": "breed",
          "type": "string"
        },
        {
          "internalType": "bool",
          "name": "isAvailable",
          "type": "bool"
        },
        {
          "internalType": "string",
          "name": "image",
          "type": "string"
        }
      ],
      "stateMutability": "view",
      "type": "function",
      "constant": true
    },
    {
      "inputs": [
        {
          "internalType": "string",
          "name": "_name",
          "type": "string"
        },
        {
          "internalType": "uint8",
          "name": "_age",
          "type": "uint8"
        },
        {
          "internalType": "string",
          "name": "_breed",
          "type": "string"
        },
        {
          "internalType": "string",
          "name": "_image",
          "type": "string"
        }
      ],
      "name": "addPet",
      "outputs": [],
      "stateMutability": "nonpayable",
      "type": "function"
    },
    {
      "inputs": [
        {
          "internalType": "uint256",
          "name": "_petId",
          "type": "uint256"
        }
      ],
      "name": "getPet",
      "outputs": [
        {
          "internalType": "string",
          "name": "",
          "type": "string"
        },
        {
          "internalType": "uint8",
          "name": "",
          "type": "uint8"
        },
        {
          "internalType": "string",
          "name": "",
          "type": "string"
        },
        {
          "internalType": "bool",
          "name": "",
          "type": "bool"
        },
        {
          "internalType": "string",
          "name": "",
          "type": "string"
        }
      ],
      "stateMutability": "view",
      "type": "function",
      "constant": true
    },
    {
      "inputs": [],
      "name": "getAllPets",
      "outputs": [
        {
          "components": [
            {
              "internalType": "string",
              "name": "name",
              "type": "string"
            },
            {
              "internalType": "uint8",
              "name": "age",
              "type": "uint8"
            },
            {
              "internalType": "string",
              "name": "breed",
              "type": "string"
            },
            {
              "internalType": "bool",
              "name": "isAvailable",
              "type": "bool"
            },
            {
              "internalType": "string",
              "name": "image",
              "type": "string"
            }
          ],
          "internalType": "struct PetDatabase.Pet[]",
          "name": "",
          "type": "tuple[]"
        }
      ],
      "stateMutability": "view",
      "type": "function",
      "constant": true
    },
    {
      "inputs": [
        {
          "internalType": "uint256",
          "name": "_petId",
          "type": "uint256"
        },
        {
          "internalType": "bool",
          "name": "_isAvailable",
          "type": "bool"
        }
      ],
      "name": "updatePetAvailability",
      "outputs": [],
      "stateMutability": "nonpayable",
      "type": "function"
    }
  ],
  "bytecode": "0x608060405234801561001057600080fd5b506113ce806100206000396000f3fe608060405234801561001057600080fd5b50600436106100575760003560e01c80632939b0eb1461005c578063416411461461007857806359d55194146100945780635b236d97146100c8578063cfb869bf146100e6575b600080fd5b61007660048036038101906100719190610a40565b61011a565b005b610092600480360381019061008d9190610bff565b6101a2565b005b6100ae60048036038101906100a99190610cba565b6102dd565b6040516100bf959493929190610d84565b60405180910390f35b6100d0610579565b6040516100dd9190610f9a565b60405180910390f35b61010060048036038101906100fb9190610cba565b6107c6565b604051610111959493929190610d84565b60405180910390f35b6000805490508210610161576040517f08c379a000000000000000000000000000000000000000000000000000000000815260040161015890611008565b60405180910390fd5b806000838154811061017657610175611028565b5b906000526020600020906005020160030160006101000a81548160ff0219169083151502179055505050565b60006040518060a001604052808681526020018560ff168152602001848152602001600115158152602001838152509080600181540180825580915050600190039060005260206000209060050201600090919091909150600082015181600001908161020f9190611263565b5060208201518160010160006101000a81548160ff021916908360ff16021790555060408201518160020190816102469190611263565b5060608201518160030160006101000a81548160ff021916908315150217905550608082015181600401908161027c9190611263565b505050600060016000805490506102939190611364565b9050807fa77e1b2b02efcf16d8c87cb02ced764c64d68f4830612ba05b84f2b41438f12e8686866001876040516102ce959493929190610d84565b60405180910390a25050505050565b60606000606060006060600080549050861061032e576040517f08c379a000000000000000000000000000000000000000000000000000000000815260040161032590611008565b60405180910390fd5b600080878154811061034357610342611028565b5b90600052602060002090600502016040518060a001604052908160008201805461036c90611086565b80601f016020809104026020016040519081016040528092919081815260200182805461039890611086565b80156103e55780601f106103ba576101008083540402835291602001916103e5565b820191906000526020600020905b8154815290600101906020018083116103c857829003601f168201915b505050505081526020016001820160009054906101000a900460ff1660ff1660ff16815260200160028201805461041b90611086565b80601f016020809104026020016040519081016040528092919081815260200182805461044790611086565b80156104945780601f1061046957610100808354040283529160200191610494565b820191906000526020600020905b81548152906001019060200180831161047757829003601f168201915b505050505081526020016003820160009054906101000a900460ff161515151581526020016004820180546104c890611086565b80601f01602080910402602001604051908101604052809291908181526020018280546104f490611086565b80156105415780601f1061051657610100808354040283529160200191610541565b820191906000526020600020905b81548152906001019060200180831161052457829003601f168201915b505050505081525050905080600001518160200151826040015183606001518460800151955095509550955095505091939590929450565b60606000805480602002602001604051908101604052809291908181526020016000905b828210156107bd57838290600052602060002090600502016040518060a00160405290816000820180546105d090611086565b80601f01602080910402602001604051908101604052809291908181526020018280546105fc90611086565b80156106495780601f1061061e57610100808354040283529160200191610649565b820191906000526020600020905b81548152906001019060200180831161062c57829003601f168201915b505050505081526020016001820160009054906101000a900460ff1660ff1660ff16815260200160028201805461067f90611086565b80601f01602080910402602001604051908101604052809291908181526020018280546106ab90611086565b80156106f85780601f106106cd576101008083540402835291602001916106f8565b820191906000526020600020905b8154815290600101906020018083116106db57829003601f168201915b505050505081526020016003820160009054906101000a900460ff1615151515815260200160048201805461072c90611086565b80601f016020809104026020016040519081016040528092919081815260200182805461075890611086565b80156107a55780601f1061077a576101008083540402835291602001916107a5565b820191906000526020600020905b81548152906001019060200180831161078857829003601f168201915b5050505050815250508152602001906001019061059d565b50505050905090565b600081815481106107d657600080fd5b90600052602060002090600502016000915090508060000180546107f990611086565b80601f016020809104026020016040519081016040528092919081815260200182805461082590611086565b80156108725780601f1061084757610100808354040283529160200191610872565b820191906000526020600020905b81548152906001019060200180831161085557829003601f168201915b5050505050908060010160009054906101000a900460ff169080600201805461089a90611086565b80601f01602080910402602001604051908101604052809291908181526020018280546108c690611086565b80156109135780601f106108e857610100808354040283529160200191610913565b820191906000526020600020905b8154815290600101906020018083116108f657829003601f168201915b5050505050908060030160009054906101000a900460ff169080600401805461093b90611086565b80601f016020809104026020016040519081016040528092919081815260200182805461096790611086565b80156109b45780601f10610989576101008083540402835291602001916109b4565b820191906000526020600020905b81548152906001019060200180831161099757829003601f168201915b5050505050905085565b6000604051905090565b600080fd5b600080fd5b6000819050919050565b6109e5816109d2565b81146109f057600080fd5b50565b600081359050610a02816109dc565b92915050565b60008115159050919050565b610a1d81610a08565b8114610a2857600080fd5b50565b600081359050610a3a81610a14565b92915050565b60008060408385031215610a5757610a566109c8565b5b6000610a65858286016109f3565b9250506020610a7685828601610a2b565b9150509250929050565b600080fd5b600080fd5b6000601f19601f8301169050919050565b7f4e487b7100000000000000000000000000000000000000000000000000000000600052604160045260246000fd5b610ad382610a8a565b810181811067ffffffffffffffff82111715610af257610af1610a9b565b5b80604052505050565b6000610b056109be565b9050610b118282610aca565b919050565b600067ffffffffffffffff821115610b3157610b30610a9b565b5b610b3a82610a8a565b9050602081019050919050565b82818337600083830152505050565b6000610b69610b6484610b16565b610afb565b905082815260208101848484011115610b8557610b84610a85565b5b610b90848285610b47565b509392505050565b600082601f830112610bad57610bac610a80565b5b8135610bbd848260208601610b56565b91505092915050565b600060ff82169050919050565b610bdc81610bc6565b8114610be757600080fd5b50565b600081359050610bf981610bd3565b92915050565b60008060008060808587031215610c1957610c186109c8565b5b600085013567ffffffffffffffff811115610c3757610c366109cd565b5b610c4387828801610b98565b9450506020610c5487828801610bea565b935050604085013567ffffffffffffffff811115610c7557610c746109cd565b5b610c8187828801610b98565b925050606085013567ffffffffffffffff811115610ca257610ca16109cd565b5b610cae87828801610b98565b91505092959194509250565b600060208284031215610cd057610ccf6109c8565b5b6000610cde848285016109f3565b91505092915050565b600081519050919050565b600082825260208201905092915050565b60005b83811015610d21578082015181840152602081019050610d06565b60008484015250505050565b6000610d3882610ce7565b610d428185610cf2565b9350610d52818560208601610d03565b610d5b81610a8a565b840191505092915050565b610d6f81610bc6565b82525050565b610d7e81610a08565b82525050565b600060a0820190508181036000830152610d9e8188610d2d565b9050610dad6020830187610d66565b8181036040830152610dbf8186610d2d565b9050610dce6060830185610d75565b8181036080830152610de08184610d2d565b90509695505050505050565b600081519050919050565b600082825260208201905092915050565b6000819050602082019050919050565b600082825260208201905092915050565b6000610e3482610ce7565b610e3e8185610e18565b9350610e4e818560208601610d03565b610e5781610a8a565b840191505092915050565b610e6b81610bc6565b82525050565b610e7a81610a08565b82525050565b600060a0830160008301518482036000860152610e9d8282610e29565b9150506020830151610eb26020860182610e62565b5060408301518482036040860152610eca8282610e29565b9150506060830151610edf6060860182610e71565b5060808301518482036080860152610ef78282610e29565b9150508091505092915050565b6000610f108383610e80565b905092915050565b6000602082019050919050565b6000610f3082610dec565b610f3a8185610df7565b935083602082028501610f4c85610e08565b8060005b85811015610f885784840389528151610f698582610f04565b9450610f7483610f18565b925060208a01995050600181019050610f50565b50829750879550505050505092915050565b60006020820190508181036000830152610fb48184610f25565b905092915050565b7f496e76616c696420706574204944000000000000000000000000000000000000600082015250565b6000610ff2600e83610cf2565b9150610ffd82610fbc565b602082019050919050565b6000602082019050818103600083015261102181610fe5565b9050919050565b7f4e487b7100000000000000000000000000000000000000000000000000000000600052603260045260246000fd5b7f4e487b7100000000000000000000000000000000000000000000000000000000600052602260045260246000fd5b6000600282049050600182168061109e57607f821691505b6020821081036110b1576110b0611057565b5b50919050565b60008190508160005260206000209050919050565b60006020601f8301049050919050565b600082821b905092915050565b6000600883026111197fffffffffffffffffffffffffffffffffffffffffffffffffffffffffffffffff826110dc565b61112386836110dc565b95508019841693508086168417925050509392505050565b6000819050919050565b600061116061115b611156846109d2565b61113b565b6109d2565b9050919050565b6000819050919050565b61117a83611145565b61118e61118682611167565b8484546110e9565b825550505050565b600090565b6111a3611196565b6111ae818484611171565b505050565b5b818110156111d2576111c760008261119b565b6001810190506111b4565b5050565b601f821115611217576111e8816110b7565b6111f1846110cc565b81016020851015611200578190505b61121461120c856110cc565b8301826111b3565b50505b505050565b600082821c905092915050565b600061123a6000198460080261121c565b1980831691505092915050565b60006112538383611229565b9150826002028217905092915050565b61126c82610ce7565b67ffffffffffffffff81111561128557611284610a9b565b5b61128f8254611086565b61129a8282856111d6565b600060209050601f8311600181146112cd57600084156112bb578287015190505b6112c58582611247565b86555061132d565b601f1984166112db866110b7565b60005b82811015611303578489015182556001820191506020850194506020810190506112de565b86831015611320578489015161131c601f891682611229565b8355505b6001600288020188555050505b505050505050565b7f4e487b7100000000000000000000000000000000000000000000000000000000600052601160045260246000fd5b600061136f826109d2565b915061137a836109d2565b925082820390508181111561139257611391611335565b5b9291505056fea26469706673582212206358e6c8b82d4eb9e3d3d048d005631fb1e03883465fc3ae5a695c1e5dfdba4c64736f6c63430008130033",
  "immutableReferences": {},
  "source": "//SPDX-License-Identifier: UNLICENSED\npragma solidity ^0.8.19;\n\ncontract PetDatabase {\n    struct Pet {\n        string name;\n        uint8 age;\n        string breed;\n        bool isAvailable;\n        string image; // New field for the image of the pet\n    }\n    \n    Pet[] public pets; // Array to store pets\n    \n    event PetAdded(\n        uint256 indexed petId,\n        string name,\n        uint8 age,\n        string breed,\n        bool isAvailable,\n        string image // Updated event to include image\n    );\n\n    // The following function adds a pet to the blockchain of pets [REQUIRES GAS]\n    function addPet(\n        string memory _name,\n        uint8 _age,\n        string memory _breed,\n        string memory _image // New parameter for the image\n    ) external {\n        pets.push(Pet(_name, _age, _breed, true, _image)); // Push new pet to the array\n        uint256 petId = pets.length - 1; // Calculate the pet ID\n        \n        emit PetAdded(petId, _name, _age, _breed, true, _image); // Emit the event\n    }\n\n    // The following function returns a single pet given a specific petId [DOES NOT REQUIRE GAS]\n    function getPet(\n        uint256 _petId\n    )\n        external\n        view\n        returns (string memory, uint8, string memory, bool, string memory)\n    {\n        require(_petId < pets.length, \"Invalid pet ID\"); // Validate pet ID\n        \n        Pet memory pet = pets[_petId];\n        return (pet.name, pet.age, pet.breed, pet.isAvailable, pet.image);\n    }\n\n    // The following function returns all pets stored in the blockchain [DOES NOT REQUIRE GAS]\n    function getAllPets() external view returns (Pet[] memory) {\n        return pets;\n    }\n\n    // The following function updates when a pet is either bought or sold [REQUIRES GAS]\n    function updatePetAvailability(uint256 _petId, bool _isAvailable) external {\n        require(_petId < pets.length, \"Invalid pet ID\"); // Validate pet ID\n        \n        pets[_petId].isAvailable = _isAvailable;\n    }\n}\n",
  "sourcePath": "/Users/vikramnarra/Code/Pets/contracts/PetDatabase.sol",
  "compiler": {
    "name": "solc",
    "version": "0.8.19+commit.7dd6d404.Emscripten.clang"
  },
  "schemaVersion": "3.4.15",
  "updatedAt": "2023-08-12T20:52:23.871Z",
  "networkType": "ethereum",
  "devdoc": {
    "kind": "dev",
    "methods": {},
    "version": 1
  },
  "userdoc": {
    "kind": "user",
    "methods": {},
    "version": 1
  }
}